:100000000C942A000C9447000C9447000C94290D82
:100010000C94F60C0C9447000C94C30C0C94470001
:100020000C94900C0C942A0C0C9447000C944700F0
:100030000C9447000C9447000C9447000C94470024
:100040000C9447000C9447000C9447000C945D0CF2
:100050000C94470011241FBECFE5D4E0DEBFCDBF16
:1000600010E0A0E6B0E0E2EEF3E202C005900D92EF
:10007000A438B107D9F710E0A4E8B0E001C01D92A0
:10008000A23AB107E1F70E94CA080C94EF110C9450
:100090000000EF92FF920F931F937B018C0120E0F1
:1000A00030E040E05FE40E94490388238CF0C801FF
:1000B000B70120E030E040E05FE40E94C1010E940F
:1000C000A9039B01AC01205030404040504806C07D
:1000D000C801B7010E94A9039B01AC01B901CA0183
:1000E0001F910F91FF90EF900895A0E0B0E0EBE733
:1000F000F0E00C94B811DC012B01FA019C919230D4
:1001000008F439C1EB018881823008F433C194309E
:1001100069F4843009F02FC111969C91119789815F
:10012000981709F428C1A0E6B0E025C1843009F48D
:1001300021C18230A9F4923009F01DC19A01AD01AC
:1001400088E0EA010990AE01E90109929E0181501F
:10015000C1F7E201898111969C918923818308C1AD
:10016000923009F407C112962D903C901397EB0141
:100170008A819B811496AD90BD90CD90DC901797AD
:10018000EC80FD800E811F819101281B390BB90184
:1001900037FF04C066277727621B730B6032710537
:1001A0000CF061C0121613066CF537014801062EDB
:1001B00004C096948794779467940A94D2F721E0C8
:1001C00030E040E050E004C0220F331F441F551FB1
:1001D0006A95D2F721503040404050402E213F21B7
:1001E00040235123211531054105510521F021E01E
:1001F00030E040E050E079018A01E628F72808293C
:1002000019293CC0232BD1F1260E371E350146019A
:10021000062E04C096948794779467940A94D2F734
:1002200021E030E040E050E004C0220F331F441FC3
:10023000551F6A95D2F721503040404050402A2146
:100240003B214C215D21211531054105510521F04E
:1002500021E030E040E050E059016A01A628B728CB
:10026000C828D9280BC0821593052CF01C01AA249C
:10027000BB24650103C0EE24FF24870111969C91E5
:10028000D20111968C91981709F445C0992339F041
:10029000A80197012A193B094C095D0906C0A6016E
:1002A00095012E193F09400B510B57FD08C01182D3
:1002B0003382228224833583468357831DC081E0A5
:1002C00081833382228288279927DC01821B930B4A
:1002D000A40BB50B84839583A683B7830DC0220F2F
:1002E000331F441F551F24833583468357838281E0
:1002F000938101979383828324813581468157813D
:10030000DA01C9010197A109B1098F5F9F4FAF4F72
:10031000BF4328F30BC0918333822282EA0CFB1C7B
:100320000C1D1D1DE482F5820683178383E0808304
:10033000248135814681578157FF1AC0C901AA27F8
:1003400097FDA095BA2F81709070A070B0705695EF
:10035000479537952795822B932BA42BB52B848318
:100360009583A683B7838281938101969383828349
:10037000DF0101C0D201CD01CDB7DEB7E2E10C94BF
:10038000D411A0E2B0E0E7ECF1E00C94C411698371
:100390007A838B839C832D833E834F835887E9E048
:1003A000EE2EF12CEC0EFD1ECE010196B7010E943F
:1003B000D2048E010F5E1F4FCE010596B8010E9438
:1003C000D2048A8991E089278A8BC701B801AE01DE
:1003D000475E5F4F0E9475000E94FD03A096E6E015
:1003E0000C94E011A0E2B0E0E8EFF1E00C94C4114D
:1003F00069837A838B839C832D833E834F835887C5
:10040000F9E0EF2EF12CEC0EFD1ECE010196B701A6
:100410000E94D2048E010F5E1F4FCE010596B801D7
:100420000E94D204C701B801AE01475E5F4F0E942F
:1004300075000E94FD03A096E6E00C94E011A0E296
:10044000B0E0E5E2F2E00C94B81169837A838B8323
:100450009C832D833E834F835887CE010196BE0136
:10046000675F7F4F0E94D204CE010596BE016F5E8A
:100470007F4F0E94D2049985923088F0898982301A
:10048000C8F0943019F4823051F404C0843029F457
:10049000923081F480E690E0C6C0923049F420E0CA
:1004A0009A858A89981321E02A87CE010996BBC0D4
:1004B000823049F420E09A858A89981321E02A8BBA
:1004C000CE014196B0C02D843E844F8458886D88FB
:1004D0007E888F88988CEE24FF248701AA24BB2471
:1004E000650140E050E060E070E0E0E0F0E0C10174
:1004F00081709070892BE9F0E60CF71C081D191D1E
:100500009A01AB012A0D3B1D4C1D5D1D80E090E062
:10051000A0E0B0E0E614F7040805190520F481E036
:1005200090E0A0E0B0E0BA01A901480F591F6A1F8E
:100530007B1FAA0CBB1CCC1CDD1C97FE08C081E0F5
:1005400090E0A0E0B0E0A82AB92ACA2ADB2A3196B6
:10055000E032F10549F0660C771C881C991C569412
:10056000479437942794C3CFFA85EA892B893C892D
:100570008B859C85280F391F2E5F3F4F17C0CA01FE
:1005800081709070892B61F016950795F794E79428
:1005900080E090E0A0E0B0E8E82AF92A0A2B1B2BC3
:1005A00076956795579547952F5F3F4F77FDE7CF36
:1005B0000CC0440F551F661F771F17FD4160EE0CDE
:1005C000FF1C001F111F21503040403090E05907A0
:1005D00090E0690790E4790760F32B8F3C8FDB0193
:1005E000CA018F779070A070B07080349105A1051A
:1005F000B10561F447FD0AC0E114F10401051105DC
:1006000029F0405C5F4F6F4F7F4F40781A8EFE1786
:1006100011F081E08A8F4D8F5E8F6F8F78A383E01A
:10062000898FCE0149960E94FD03A096E2E10C94C9
:10063000D411A8E1B0E0EFE1F3E00C94C4116983B8
:100640007A838B839C832D833E834F83588789E0F5
:10065000E82EF12CEC0EFD1ECE010196B7010E9492
:10066000D2048E010F5E1F4FCE010596B8010E9485
:10067000D2048985823040F08989823028F0C70110
:10068000B8010E944A0501C08FEF6896E6E00C941D
:10069000E011A8E1B0E0EFE4F3E00C94C411698349
:1006A0007A838B839C832D833E834F83588789E095
:1006B000E82EF12CEC0EFD1ECE010196B7010E9432
:1006C000D2048E010F5E1F4FCE010596B8010E9425
:1006D000D2048985823040F08989823028F0C701B0
:1006E000B8010E944A0501C08FEF6896E6E00C94BD
:1006F000E011A8E1B0E0EFE7F3E00C94C4116983E6
:100700007A838B839C832D833E834F83588789E034
:10071000E82EF12CEC0EFD1ECE010196B7010E94D1
:10072000D2048E010F5E1F4FCE010596B8010E94C4
:10073000D2048985823040F08989823028F0C7014F
:10074000B8010E944A0501C081E06896E6E00C9479
:10075000E011ACE0B0E0EFEAF3E00C94C81169837B
:100760007A838B839C83CE010196BE016B5F7F4FA2
:100770000E94D2048D81823061F1823050F1843048
:1007800021F48E81882351F12EC02F81388537FDC9
:1007900020C06E812F3131051CF06623F9F023C093
:1007A0008EE190E0821B930B29853A854B855C8511
:1007B00004C056954795379527958A95D2F76623B5
:1007C000B1F050954095309521953F4F4F4F5F4F79
:1007D0000EC020E030E040E050E009C02FEF3FEFD6
:1007E0004FEF5FE704C020E030E040E050E8B9019F
:1007F000CA012C96E2E00C94E411DF92EF92FF9292
:100800000F931F93FC01E480F58006811781D1804E
:100810008081823048F480E090E0A0E1B0E0E82AF6
:10082000F92A0A2B1B2BA5C0843009F49FC0823003
:1008300021F4EE24FF24870105C0E114F104010531
:10084000110519F4E0E0F0E096C0628173819FEF3A
:10085000623879070CF05BC022E83FEF261B370BAC
:100860002A3131052CF020E030E040E050E02AC091
:10087000B801A701022E04C0769567955795479554
:100880000A94D2F781E090E0A0E0B0E004C0880FC5
:10089000991FAA1FBB1F2A95D2F70197A109B10979
:1008A0008E219F21A023B1230097A105B10521F03E
:1008B00081E090E0A0E0B0E09A01AB01282B392B59
:1008C0004A2B5B2BDA01C9018F779070A070B07052
:1008D00080349105A105B10539F427FF09C0205CDA
:1008E0003F4F4F4F5F4F04C0215C3F4F4F4F5F4F13
:1008F000E0E0F0E02030A0E03A07A0E04A07A0E402
:100900005A0710F0E1E0F0E079018A0127C0603871
:10091000710564F5FB01E158FF4FD801C7018F77DE
:100920009070A070B07080349105A105B10539F4C4
:10093000E7FE0DC080E490E0A0E0B0E004C08FE3EB
:1009400090E0A0E0B0E0E80EF91E0A1F1B1F17FFA1
:1009500005C016950795F794E794319687E01695AC
:100960000795F794E7948A95D1F705C0EE24FF2404
:100970008701EFEFF0E06E2F679566276795902F60
:100980009F77D794DD24D7948E2F8695492F462BB9
:10099000582F5D29B701CA011F910F91FF90EF9069
:1009A000DF900895FC01DB01408151812281622F9B
:1009B0006F7770E0221F2227221F9381892F880FD3
:1009C000822B282F30E0991F9927991F11969C930D
:1009D000119721153105A9F54115510561057105DD
:1009E00011F482E037C082E89FEF13969C938E93B8
:1009F00012979A01AB0167E0220F331F441F551F66
:100A00006A95D1F783E08C930DC0220F331F441FEA
:100A1000551F12968D919C911397019713969C9355
:100A20008E931297203080E0380780E0480780E4FA
:100A3000580758F314962D933D934D935C93179755
:100A400008952F3F310579F4411551056105710570
:100A500019F484E08C93089564FF03C081E08C93C3
:100A600012C01C9210C02F57304013963C932E9307
:100A7000129783E08C9387E0440F551F661F771F02
:100A80008A95D1F7706414964D935D936D937C9322
:100A9000179708951F93DC01FB019C91923008F495
:100AA00047C08081823008F443C0943051F41196DD
:100AB0001C91843099F58181682F70E0611B710968
:100AC0003FC0843021F0923031F48230B9F181811D
:100AD000882389F12DC011961C9111978230F1F075
:100AE00081811817D9F412962D913C911397828128
:100AF00093818217930794F028173907BCF0149656
:100B00008D919D910D90BC91A02D248135814681C0
:100B10005781281739074A075B0718F4112341F05A
:100B20000AC082179307A407B50740F4112319F0F0
:100B300061E070E005C06FEF7FEF02C060E070E041
:100B4000CB011F910895DF93CF9300D000D000D048
:100B5000CDB7DEB79C838B837E836D8319821A8227
:100B60001AC08A81282F30E08B819C81FC01E20F22
:100B7000F31F40818A81282F30E08D819E81FC0106
:100B8000E20FF31F8081481719F081E0898306C0C6
:100B90008A818F5F8A838A81853018F389812696BE
:100BA0000FB6F894DEBF0FBECDBFCF91DF91089591
:100BB0000F931F93DF93CF93CDB7DEB760970FB638
:100BC000F894DEBF0FBECDBF988B8F871092870041
:100BD00099C080E10E94B41080918700282F30E0F6
:100BE0008F8598898C01020F131F0E94CB10F8018A
:100BF000808380918700482F50E080918700282FC4
:100C000030E08F859889FC01E20FF31F2081CA0133
:100C1000622F0E94730A80E090E0A8ECB2E48B8718
:100C20009C87AD87BE876B857C858D859E8520E002
:100C300030E04AEF54E40E941F02DC01CB018F83B5
:100C40009887A987BA876F81788589859A8520E0FA
:100C500030E040E85FE30E94790388232CF481E0D0
:100C600090E09E838D833FC06F81788589859A85CA
:100C700020E03FEF4FE757E40E94190318164CF5A8
:100C80006B857C858D859E8520E030E040E251E4D7
:100C90000E941F02DC01CB01BC01CD010E94490072
:100CA000DC01CB019E838D830FC088EC90E09C8398
:100CB0008B838B819C810197F1F79C838B838D8142
:100CC0009E8101979E838D838D819E81009769F718
:100CD00014C06F81788589859A850E944900DC015E
:100CE000CB019E838D838D819E819A8389838981A7
:100CF0009A810197F1F79A838983809187008F5FAA
:100D00008093870080918700853008F462CF6096D9
:100D10000FB6F894DEBF0FBECDBFCF91DF911F910C
:100D20000F9108950F931F93DF93CF9300D0CDB70A
:100D3000DEB79A8389831092880015C080E10E94F3
:100D4000B41080918800282F30E089819A818C012D
:100D5000020F131F0E94CB10F8018083809188003E
:100D60008F5F8093880080918800853038F30F90E2
:100D70000F90CF91DF911F910F910895DF93CF9343
:100D8000CDB7DEB72E970FB6F894DEBF0FBECDBF3E
:100D90001092890086C080918900482F50E0809190
:100DA0008900882F90E09C0123563F4FCA01B9016A
:100DB0000E94B40A80E090E0A8ECB2E48B879C87A4
:100DC000AD87BE876B857C858D859E8520E030E074
:100DD0004AEF54E40E941F02DC01CB018F83988705
:100DE000A987BA876F81788589859A8520E030E068
:100DF00040E85FE30E94790388232CF481E090E0CF
:100E00009E838D833FC06F81788589859A8520E098
:100E10003FEF4FE757E40E94190318164CF56B8516
:100E20007C858D859E8520E030E040E251E40E9483
:100E30001F02DC01CB01BC01CD010E944900DC0195
:100E4000CB019E838D830FC088EC90E09C838B83C5
:100E50008B819C810197F1F79C838B838D819E818F
:100E600001979E838D838D819E81009769F714C0C1
:100E70006F81788589859A850E944900DC01CB01C4
:100E80009E838D838D819E819A83898389819A81B6
:100E90000197F1F79A838983809189008F5F80930E
:100EA000890080918900853008F475CF2E960FB6A1
:100EB000F894DEBF0FBECDBFCF91DF910895DF93D1
:100EC000CF93CDB7DEB76A970FB6F894DEBF0FBEEB
:100ED000CDBF809186008F5F8093860080918600D1
:100EE000833009F0A1C080E090E0AFE2B4E48B87EA
:100EF0009C87AD87BE876B857C858D859E8520E030
:100F000030E04AEF54E40E941F02DC01CB018F83E2
:100F10009887A987BA876F81788589859A8520E027
:100F200030E040E85FE30E94790388232CF481E0FD
:100F300090E09E838D833FC06F81788589859A85F7
:100F400020E03FEF4FE757E40E94190318164CF5D5
:100F50006B857C858D859E8520E030E040E251E404
:100F60000E941F02DC01CB01BC01CD010E9449009F
:100F7000DC01CB019E838D830FC088EC90E09C83C5
:100F80008B838B819C810197F1F79C838B838D816F
:100F90009E8101979E838D838D819E81009769F745
:100FA00014C06F81788589859A850E944900DC018B
:100FB000CB019E838D838D819E819A8389838981D4
:100FC0009A810197F1F79A838983CE010F969F8BBF
:100FD0008E8BE8E6F0E0F98FE88FF7E0FA8FE88D86
:100FE000F98D0080888D998D0196998F888FEE8973
:100FF000FF8900828E899F8901969F8B8E8B9A8DA7
:1010000091509A8FEA8DEE2351F78DE198E061E0DF
:101010000E94A00ECE010F960E945C0D809185006B
:101020008130E1F7109285006A960FB6F894DEBF22
:101030000FBECDBFCF91DF910895DF93CF93CDB792
:10104000DEB7809184008F5F80938400809184005C
:10105000813021F40E940E0C0E94AE088091840021
:101060008F3061F40E94BC080E941C0C81E00E9439
:10107000100F1092840081E080938500CF91DF9162
:101080000895DF93CF93CDB7DEB7809184008F5F53
:101090008093840080918400813011F40E94FD09C6
:1010A000809184008F3051F40E94270A81E00E94D1
:1010B000100F1092840081E080938500CF91DF9122
:1010C0000895DF93CF93CDB7DEB7809184008F5F13
:1010D0008093840080918400833041F481E00E94F9
:1010E000100F1092840081E080938500CF91DF91F2
:1010F0000895DF93CF93CDB7DEB7809184008F5FE3
:101100008093840080918400813011F40E94120A3F
:10111000809184008F3051F40E94270A81E00E9460
:10112000100F1092840081E080938500CF91DF91B1
:101130000895DF93CF93CDB7DEB7AAE3B0E0EAE33B
:10114000F0E0808181608C93ABE3B0E0EBE3F0E012
:1011500080818E7F8C93CF91DF910895DF93CF9321
:10116000CDB7DEB7ABE3B0E0EBE3F0E080818160C8
:101170008C93CF91DF910895DF93CF93CDB7DEB7F6
:10118000ABE3B0E0EBE3F0E080818E7F8C93CF9116
:10119000DF910895DF93CF93CDB7DEB769970FB690
:1011A000F894DEBF0FBECDBFCE010196998B888B20
:1011B000E6E7F0E0FB8BEA8BF8E0FC8BEA89FB8941
:1011C00000808A899B8901969B8B8A8BE889F989A3
:1011D0000082888999890196998B888B9C89915086
:1011E0009C8BEC89EE2351F7CE0109969E8B8D8B5B
:1011F000EFE6F0E0F88FEF8BF7E0F98FEF89F88DED
:1012000000808F89988D0196988F8F8BED89FE894C
:1012100000828D899E8901969E8B8D8B998D915030
:10122000998FE98DEE2351F7CE0101960E947D0F33
:101230000E943C0A0E94DA090E9499080E94F90B58
:10124000AFE5B0E0EFE5F0E0808180688C932AE8BC
:1012500030E080E090E0B9010E94B40A80918A00F9
:101260008F3F61F40E94CB108031E1F781E00E9452
:10127000B41088E990E00E94D8050BC080918A00E4
:101280008F3F39F00E94CB108031E1F780E00E945F
:10129000B41080E10E94B4100E94CB1080938B00A8
:1012A00080918B008B3251F583E990E00E94920689
:1012B0000E94BE0683E990E02DE930E0B9010E946A
:1012C000A30580938C000E94CB108031E1F78091C0
:1012D0008C000E94B41080918C00882329F488E946
:1012E00090E00E94D8050AC080918C00813011F4F2
:1012F0000E945F07809186008330B0F280918B005E
:101300008D3209F054C083E990E00E9492060E9459
:10131000BE0683E990E02DE930E0B9010E94A30503
:1013200080938C000E94CB108031E1F780918C007B
:101330000E94B41080918C00882371F581E498E0BC
:1013400061E00E94A00ECE0109960E945C0D809182
:1013500085008130E1F71092850081E698E061E038
:101360000E94A00ECE0109960E945C0D809185001E
:101370008130E1F71092850089E798E061E00E94F2
:10138000A00ECE0109960E945C0D809185008130EF
:10139000E1F7109285000BC080918C00813011F430
:1013A0000E945F0780918600833008F4ACCF1092D2
:1013B00086006FCFDF93CF93CDB7DEB7AAE3B0E05F
:1013C000EAE3F0E0808188608C93AAE3B0E0EAE38E
:1013D000F0E0808180618C93ABE3B0E0EBE3F0E080
:1013E0008081877F8C93ABE3B0E0EBE3F0E080811A
:1013F0008F7E8C93CF91DF910895DF93CF93CDB7FC
:10140000DEB7ABE3B0E0EBE3F0E0808188608C9383
:10141000ABE3B0E0EBE3F0E080818F7E8C93CF9183
:10142000DF910895DF93CF93CDB7DEB7ABE3B0E0A4
:10143000EBE3F0E08081877F8C93ABE3B0E0EBE3FC
:10144000F0E0808180618C93CF91DF910895DF93EC
:10145000CF93CDB7DEB7ABE3B0E0EBE3F0E0808154
:10146000877F8C93ABE3B0E0EBE3F0E080818F7E8D
:101470008C93CF91DF910895DF93CF93CDB7DEB7F3
:101480002B970FB6F894DEBF0FBECDBFCE010196ED
:1014900098878F83EEE7F0E0FA87E987F6E0FB872D
:1014A000E985FA85008089859A8501969A878987DA
:1014B000EF81F88500828F819885019698878F83C8
:1014C0009B8591509B87EB85EE2351F7CE010196CA
:1014D0000E94140B2B960FB6F894DEBF0FBECDBF43
:1014E000CF91DF910895DF93CF9300D000D0CDB797
:1014F000DEB79A8389836B830E94790B0E94D10B9C
:10150000883011F01C8228C089819A818070977080
:10151000880F892F881F990B9195806A0E94940BE0
:101520000E94D10B883111F01C8216C089810E9463
:10153000940B0E94D10B883211F01C820DC08B815C
:101540000E94940B0E94D10B883211F01C8204C0BF
:101550000E94890B81E08C838C810F900F900F90FB
:101560000F90CF91DF910895DF93CF9300D000D0FB
:101570000F92CDB7DEB79A8389837C836B830E94F9
:10158000790B0E94D10B883011F01D8244C08981F3
:101590009A8180709770880F892F881F990B919579
:1015A000806A0E94940B0E94D10B883111F01D8239
:1015B00032C089810E94940B0E94D10B883211F0B5
:1015C0001D8229C00E94790B0E94D10B803111F03D
:1015D0001D8221C089819A8180709770880F892F20
:1015E000881F990B9195816A0E94940B0E94D10BE0
:1015F000803411F01D820FC00E94BE0BEB81FC8174
:1016000080830E94D10B883511F01D8204C00E9496
:10161000890B81E08D838D810F900F900F900F903B
:101620000F90CF91DF910895CF92DF92EF92FF92CA
:101630000F931F93DF93CF9300D0CDB7DEB79A837C
:101640008983A1E2B0E0E1E2F0E08081982F9C7F05
:10165000E981FA818581892B8C93CC24DD246894DF
:10166000C5F8E981FA81218132814381548180E08A
:1016700092E1AAE7B0E0BC01CD010E949611DA0127
:10168000C9014097A109B1097C018D011695079503
:10169000F794E794E981FA818581282F30E084E08E
:1016A00090E002C0880F991F2A95E2F79C01442719
:1016B00037FD4095542FC801B7010E949611DA01F9
:1016C000C901F6018083A2E2B0E0E981FA8180815C
:1016D000880F8C93E6E5F0E084E080830F900F9014
:1016E000CF91DF911F910F91FF90EF90DF90CF90FE
:1016F0000895DF93CF93CDB7DEB7E6E5F0E084EA57
:101700008083E6E5F0E080818823DCF7CF91DF91EC
:101710000895DF93CF93CDB7DEB7E6E5F0E084E937
:101720008083CF91DF910895DF93CF930F92CDB750
:10173000DEB78983E3E2F0E089818083E6E5F0E0CB
:1017400084E88083E6E5F0E080818823DCF70F9071
:10175000CF91DF910895DF93CF93CDB7DEB7E6E564
:10176000F0E084EC8083E6E5F0E080818823DCF71C
:10177000E3E2F0E08081CF91DF910895DF93CF9392
:10178000CDB7DEB7E6E5F0E084E88083E6E5F0E09B
:1017900080818823DCF7E3E2F0E08081CF91DF9164
:1017A0000895DF93CF930F92CDB7DEB7E1E2F0E07B
:1017B0008081887F898389810F90CF91DF910895FF
:1017C000DF93CF93CDB7DEB7E0E2F0E01082E1E245
:1017D000F0E088EF8083E2E2F0E08EEF8083A6E520
:1017E000B0E0E6E5F0E080818B7F8C93CF91DF91D4
:1017F0000895DF93CF93CDB7DEB7AAE3B0E0EAE375
:10180000F0E0808180628C93ABE3B0E0EBE3F0E04A
:1018100080818F7D8C93CF91DF910895DF93CF935B
:10182000CDB7DEB7ABE3B0E0EBE3F0E08081806200
:101830008C93CF91DF910895DF93CF93CDB7DEB72F
:10184000ABE3B0E0EBE3F0E080818F7D8C93CF9150
:10185000DF9108951F920F920FB60F9211242F93CC
:101860003F934F935F936F937F938F939F93AF9328
:10187000BF93EF93FF93DF93CF93CDB7DEB7809104
:101880008D0090918E00009729F0E0918D00F091ED
:101890008E000995CF91DF91FF91EF91BF91AF91AC
:1018A0009F918F917F916F915F914F913F912F9178
:1018B0000F900FBE0F901F9018951F920F920FB6AA
:1018C0000F9211242F933F934F935F936F937F93C6
:1018D0008F939F93AF93BF93EF93FF93DF93CF9338
:1018E000CDB7DEB780918D0090918E00009729F0E2
:1018F000E0918D00F0918E000995CF91DF91FF91DD
:10190000EF91BF91AF919F918F917F916F915F9177
:101910004F913F912F910F900FBE0F901F901895F0
:101920001F920F920FB60F9211242F933F934F9354
:101930005F936F937F938F939F93AF93BF93EF9337
:10194000FF93DF93CF93CDB7DEB780918F00909157
:101950009000009729F0E0918F00F0919000099598
:10196000CF91DF91FF91EF91BF91AF919F918F91B7
:101970007F916F915F914F913F912F910F900FBE8B
:101980000F901F9018951F920F920FB60F9211246F
:101990002F933F934F935F936F937F938F939F9377
:1019A000AF93BF93EF93FF93DF93CF93CDB7DEB7A2
:1019B00080918F0090919000009729F0E0918F0026
:1019C000F09190000995CF91DF91FF91EF91BF9138
:1019D000AF919F918F917F916F915F914F913F91C7
:1019E0002F910F900FBE0F901F9018951F920F927E
:1019F0000FB60F9211242F933F934F935F936F93E2
:101A00007F938F939F93AF93BF93EF93FF93DF9356
:101A1000CF93CDB7DEB7809191009091920000975F
:101A200029F0E0919100F09192000995CF91DF911A
:101A3000FF91EF91BF91AF919F918F917F916F91A6
:101A40005F914F913F912F910F900FBE0F901F907C
:101A500018951F920F920FB60F9211242F933F9358
:101A60004F935F936F937F938F939F93AF93BF93A6
:101A7000EF93FF93DF93CF93CDB7DEB780919100C3
:101A800090919200009729F0E0919100F0919200DE
:101A90000995CF91DF91FF91EF91BF91AF919F9108
:101AA0008F917F916F915F914F913F912F910F9007
:101AB0000FBE0F901F901895DF93CF93CDB7DEB771
:101AC0002A970FB6F894DEBF0FBECDBF9A838983E5
:101AD000E981FA818481282F30E03A872987898536
:101AE0009A858130910509F463C029853A852230B1
:101AF000310509F4C5C089859A85009709F017C199
:101B0000E2E5F0E01082E3E5F0E01082ECE5F0E0E1
:101B10001082A2E5B0E0E981FA81808191818C9305
:101B2000E981FA818581282F30E038872F838F81E2
:101B30009885009731F02F81388521303105C9F023
:101B4000F6C0E3E5F0E080E88083A3E5B0E0E3E5FC
:101B5000F0E08081982F987FE981FA818681892B36
:101B60008C93A9E5B0E0E9E5F0E0808181608C9399
:101B7000DEC0ACE5B0E0E981FA81828193818C938B
:101B8000E3E5F0E088E88083A3E5B0E0E3E5F0E09A
:101B90008081982F987FE981FA818681892B8C93A7
:101BA000A9E5B0E0E9E5F0E0808182608C93BFC0F8
:101BB000ECE4F0E011821082EAE4F0E0118210829D
:101BC000EFE4F0E01082EEE4F0E01082ACE4B0E08C
:101BD000E981FA818081918111969C938E93E981AC
:101BE000FA818581282F30E03E832D838D819E816F
:101BF000009731F02D813E8121303105C9F097C029
:101C0000EFE4F0E08CE08083AEE4B0E0EEE4F0E0FE
:101C10008081982F987FE981FA818681892B8C9326
:101C2000A9E5B0E0E9E5F0E0808184608C937FC0B5
:101C3000AAE4B0E0E981FA818281938111969C93B4
:101C40008E93EFE4F0E08CE08083AEE4B0E0EEE46D
:101C5000F0E0808188608C93AEE4B0E0EEE4F0E0E8
:101C60008081982F987FE981FA818681892B8C93D6
:101C7000A9E5B0E0E9E5F0E0808180618C9357C090
:101C8000E4E4F0E01082E5E4F0E01082E3E4F0E068
:101C90001082A4E4B0E0E981FA81808191818C9383
:101CA000E981FA818581282F30E03C832B838B8169
:101CB0009C81009731F02B813C8121303105C9F0A6
:101CC00036C0E5E4F0E080E88083A5E4B0E0E5E438
:101CD000F0E08081982F987FE981FA818681892BB5
:101CE0008C93A9E5B0E0E9E5F0E0808180648C9315
:101CF0001EC0A3E4B0E0E981FA81828193818C93D4
:101D0000E5E4F0E088E88083A5E4B0E0E5E4F0E015
:101D10008081982F987FE981FA818681892B8C9325
:101D2000A9E5B0E0E9E5F0E0808180688C932A962F
:101D30000FB6F894DEBF0FBECDBFCF91DF910895EF
:101D4000DF93CF9300D000D00F92CDB7DEB79A8348
:101D500089836B838B81282F30E03D832C838C819A
:101D60009D818130910581F02C813D8122303105AA
:101D700091F08C819D810097A1F489819A81909343
:101D80008E0080938D000DC089819A819093900080
:101D900080938F0006C089819A81909392008093EE
:101DA00091000F900F900F900F900F90CF91DF91B7
:101DB0000895DF93CF9300D00F92CDB7DEB789831C
:101DC0008981282F30E03B832A838A819B8181305F
:101DD000910589F02A813B8122303105A1F08A8169
:101DE0009B810097B9F4A3E5B0E0E3E5F0E08081E2
:101DF000887F8C930FC0AEE4B0E0EEE4F0E0808129
:101E0000887F8C9307C0A5E4B0E0E5E4F0E0808132
:101E1000887F8C930F900F900F90CF91DF91089552
:101E2000DF93CF9300D00F92CDB7DEB7898389813E
:101E3000282F30E03B832A838A819B818130910562
:101E400011F12A813B8122303105D1F18A819B81B8
:101E5000009709F04CC0E2E5F0E01082E3E5F0E025
:101E60001082ECE5F0E01082A9E5B0E0E9E5F0E0F1
:101E700080818C7F8C93A8E5B0E0E8E5F0E080817C
:101E800083608C9334C0ECE4F0E011821082EAE4C9
:101E9000F0E011821082EFE4F0E01082EEE4F0E076
:101EA0001082A9E5B0E0E9E5F0E080818B7E8C93BB
:101EB000A8E5B0E0E8E5F0E080818C618C9317C084
:101EC000E4E4F0E01082E5E4F0E01082E3E4F0E026
:101ED0001082A9E5B0E0E9E5F0E080818F738C9392
:101EE000A8E5B0E0E8E5F0E08081806C8C930F908D
:101EF0000F900F90CF91DF9108950F931F93DF9371
:101F0000CF9300D000D0CDB7DEB79A838983ABE200
:101F1000B0E0EBE2F0E08081282F2D7FE981FA81AB
:101F20008481882F90E0880F991F822B8C93E98100
:101F3000FA8185818730A1F4AAE2B0E0EAE2F0E01C
:101F40008081982F9B7FE981FA8185818470892B1C
:101F50008C93AAE2B0E0EAE2F0E0808183608C93A7
:101F6000AAE2B0E0EAE2F0E0808188618C93A0E42C
:101F7000B0E0E0E4F0E0808180688C93A0E4B0E021
:101F8000E0E4F0E08081282F297FE981FA818581D2
:101F9000882F90E083709070880F991F822B8C930C
:101FA000A0E4B0E0E0E4F0E08081282F2F7CE9811C
:101FB000FA818681882F90E082959295907F98276C
:101FC000807F9827822B8C93A0E4B0E0E0E4F0E0DF
:101FD0008081282F277FE981FA818781882F90E0EF
:101FE000880F991F880F991F880F991F822B8C9338
:101FF000E981FA818481282F30E03C832B838B8117
:102000009C81009739F0EB81FC81E130F10509F406
:1020100056C0A1C000E410E0E981FA81808191817D
:10202000A281B381880F991FAA1FBB1F880F991F18
:10203000AA1FBB1F880F991FAA1FBB1F880F991FBC
:10204000AA1FBB1F9C01AD0180E092E1AAE7B0E0AE
:10205000BC01CD010E949611DA01C9010197A109C5
:10206000B109892F9A2FAB2FBB27F801808309E292
:1020700010E0E981FA8180819181A281B381880F8A
:10208000991FAA1FBB1F880F991FAA1FBB1F880F6C
:10209000991FAA1FBB1F880F991FAA1FBB1F9C0156
:1020A000AD0180E092E1AAE7B0E0BC01CD010E9461
:1020B0009611DA01C9018150F80180834CC000E417
:1020C00010E0E981FA8180819181A281B381880F3A
:1020D000991FAA1FBB1F880F991FAA1FBB1F880F1C
:1020E000991FAA1FBB1F9C01AD0180E092E1AAE7E6
:1020F000B0E0BC01CD010E949611DA01C90101973F
:10210000A109B109892F9A2FAB2FBB27F801808332
:1021100009E210E0E981FA8180819181A281B38195
:10212000880F991FAA1FBB1F880F991FAA1FBB1FCB
:10213000880F991FAA1FBB1F9C01AD0180E092E18F
:10214000AAE7B0E0BC01CD010E949611DA01C901F5
:102150008150F80180830F900F900F900F90CF91D6
:10216000DF911F910F910895DF93CF930F92CDB719
:10217000DEB78983EBE2F0E08081882F90E0807207
:1021800090700097B9F3ECE2F0E0898180830F90C2
:10219000CF91DF910895DF93CF93CDB7DEB7EBE218
:1021A000F0E080818823DCF7ECE2F0E08081CF91E1
:1021B000DF910895DF93CF9300D00F92CDB7DEB7B4
:1021C0009B838A8319820EC08981282F30E08A81FF
:1021D0009B81FC01E20FF31F80810E94B410898172
:1021E0008F5F89838981282F30E08A819B81FC0160
:1021F000E20FF31F8081882339F70F900F900F9023
:10220000CF91DF9108950F931F93DF93CF9300D069
:102210000F92CDB7DEB79B838A8319828981282FDD
:1022200030E08A819B818C01020F131F0E94CB102A
:10223000F80180830FC089818F5F89838981282F6E
:1022400030E08A819B818C01020F131F0E94CB100A
:10225000F80180838981282F30E08A819B81FC01ED
:10226000E20FF31F8081833231F78981282F30E01C
:102270008A819B81FC01E20FF31F10820F900F9067
:102280000F90CF91DF911F910F910895DF93CF931E
:102290000F92CDB7DEB78983A0E4B0E0E0E4F0E0D0
:1022A0008081282F2F7C8981882F90E082959295BC
:1022B000907F9827807F9827822B8C930F90CF91C7
:1022C000DF910895DF93CF930F92CDB7DEB7898367
:1022D000A0E4B0E0E0E4F0E08081282F277F89814E
:1022E000882F90E0880F991F880F991F880F991FDA
:1022F000822B8C930F90CF91DF910895DF93CF9332
:10230000CDB7DEB7EBE2F0E080E28083EAE2F0E016
:102310001082E0E4F0E086E88083E0E4F0E0108200
:10232000E9E2F0E01082CF91DF910895A1E21A2E48
:10233000AA1BBB1BFD010DC0AA1FBB1FEE1FFF1F69
:10234000A217B307E407F50720F0A21BB30BE40BB9
:10235000F50B661F771F881F991F1A9469F7609500
:102360007095809590959B01AC01BD01CF010895BA
:102370002F923F924F925F926F927F928F929F9295
:10238000AF92BF92CF92DF92EF92FF920F931F9383
:10239000CF93DF93CDB7DEB7CA1BDB0B0FB6F89434
:1023A000DEBF0FBECDBF09942A88398848885F8474
:1023B0006E847D848C849B84AA84B984C884DF80E5
:1023C000EE80FD800C811B81AA81B981CE0FD11DC9
:1023D0000FB6F894DEBF0FBECDBFED010895F8949F
:0223E000FFCF2D
:1023E20000000000000000000000401F0101050085
:1023F20000401F010105802500000103000001804B
:042402001A060000B6
:00000001FF
