:100000000C942A000C9447000C9447000C94A614FE
:100010000C9473140C9447000C9440140C944700F7
:100020000C940D140C94A7130C9447000C944700E7
:100030000C9447000C9447000C9447000C94470024
:100040000C9447000C9447000C9447000C94DA136E
:100050000C94470011241FBECFE5D4E0DEBFCDBF16
:1000600012E0A0E6B0E0E6E6F3E302C005900D92F0
:10007000AC32B107D9F712E0ACE2B2E001C01D9298
:10008000A734B107E1F70E94540C0C94B1190C94F9
:100090000000EF92FF920F931F937B018C0120E0F1
:1000A00030E040E05FE40E94490388238CF0C801FF
:1000B000B70120E030E040E05FE40E94C1010E940F
:1000C000A9039B01AC01205030404040504806C07D
:1000D000C801B7010E94A9039B01AC01B901CA0183
:1000E0001F910F91FF90EF900895A0E0B0E0EBE733
:1000F000F0E00C943519DC012B01FA019C9192304F
:1001000008F439C1EB018881823008F433C194309E
:1001100069F4843009F02FC111969C91119789815F
:10012000981709F428C1ADE0B2E025C1843009F484
:1001300021C18230A9F4923009F01DC19A01AD01AC
:1001400088E0EA010990AE01E90109929E0181501F
:10015000C1F7E201898111969C918923818308C1AD
:10016000923009F407C112962D903C901397EB0141
:100170008A819B811496AD90BD90CD90DC901797AD
:10018000EC80FD800E811F819101281B390BB90184
:1001900037FF04C066277727621B730B6032710537
:1001A0000CF061C0121613066CF537014801062EDB
:1001B00004C096948794779467940A94D2F721E0C8
:1001C00030E040E050E004C0220F331F441F551FB1
:1001D0006A95D2F721503040404050402E213F21B7
:1001E00040235123211531054105510521F021E01E
:1001F00030E040E050E079018A01E628F72808293C
:1002000019293CC0232BD1F1260E371E350146019A
:10021000062E04C096948794779467940A94D2F734
:1002200021E030E040E050E004C0220F331F441FC3
:10023000551F6A95D2F721503040404050402A2146
:100240003B214C215D21211531054105510521F04E
:1002500021E030E040E050E059016A01A628B728CB
:10026000C828D9280BC0821593052CF01C01AA249C
:10027000BB24650103C0EE24FF24870111969C91E5
:10028000D20111968C91981709F445C0992339F041
:10029000A80197012A193B094C095D0906C0A6016E
:1002A00095012E193F09400B510B57FD08C01182D3
:1002B0003382228224833583468357831DC081E0A5
:1002C00081833382228288279927DC01821B930B4A
:1002D000A40BB50B84839583A683B7830DC0220F2F
:1002E000331F441F551F24833583468357838281E0
:1002F000938101979383828324813581468157813D
:10030000DA01C9010197A109B1098F5F9F4FAF4F72
:10031000BF4328F30BC0918333822282EA0CFB1C7B
:100320000C1D1D1DE482F5820683178383E0808304
:10033000248135814681578157FF1AC0C901AA27F8
:1003400097FDA095BA2F81709070A070B0705695EF
:10035000479537952795822B932BA42BB52B848318
:100360009583A683B7838281938101969383828349
:10037000DF0101C0D201CD01CDB7DEB7E2E10C94BF
:100380005119A0E2B0E0E7ECF1E00C944119698367
:100390007A838B839C832D833E834F835887E9E048
:1003A000EE2EF12CEC0EFD1ECE010196B7010E943F
:1003B000D2048E010F5E1F4FCE010596B8010E9438
:1003C000D2048A8991E089278A8BC701B801AE01DE
:1003D000475E5F4F0E9475000E94FD03A096E6E015
:1003E0000C945D19A0E2B0E0E8EFF1E00C94411943
:1003F00069837A838B839C832D833E834F835887C5
:10040000F9E0EF2EF12CEC0EFD1ECE010196B701A6
:100410000E94D2048E010F5E1F4FCE010596B801D7
:100420000E94D204C701B801AE01475E5F4F0E942F
:1004300075000E94FD03A096E6E00C945D19A0E211
:10044000B0E0E5E2F2E00C94351969837A838B839E
:100450009C832D833E834F835887CE010196BE0136
:10046000675F7F4F0E94D204CE010596BE016F5E8A
:100470007F4F0E94D2049985923088F0898982301A
:10048000C8F0943019F4823051F404C0843029F457
:10049000923081F48DE092E0C6C0923049F420E0C1
:1004A0009A858A89981321E02A87CE010996BBC0D4
:1004B000823049F420E09A858A89981321E02A8BBA
:1004C000CE014196B0C02D843E844F8458886D88FB
:1004D0007E888F88988CEE24FF248701AA24BB2471
:1004E000650140E050E060E070E0E0E0F0E0C10174
:1004F00081709070892BE9F0E60CF71C081D191D1E
:100500009A01AB012A0D3B1D4C1D5D1D80E090E062
:10051000A0E0B0E0E614F7040805190520F481E036
:1005200090E0A0E0B0E0BA01A901480F591F6A1F8E
:100530007B1FAA0CBB1CCC1CDD1C97FE08C081E0F5
:1005400090E0A0E0B0E0A82AB92ACA2ADB2A3196B6
:10055000E032F10549F0660C771C881C991C569412
:10056000479437942794C3CFFA85EA892B893C892D
:100570008B859C85280F391F2E5F3F4F17C0CA01FE
:1005800081709070892B61F016950795F794E79428
:1005900080E090E0A0E0B0E8E82AF92A0A2B1B2BC3
:1005A00076956795579547952F5F3F4F77FDE7CF36
:1005B0000CC0440F551F661F771F17FD4160EE0CDE
:1005C000FF1C001F111F21503040403090E05907A0
:1005D00090E0690790E4790760F32B8F3C8FDB0193
:1005E000CA018F779070A070B07080349105A1051A
:1005F000B10561F447FD0AC0E114F10401051105DC
:1006000029F0405C5F4F6F4F7F4F40781A8EFE1786
:1006100011F081E08A8F4D8F5E8F6F8F78A383E01A
:10062000898FCE0149960E94FD03A096E2E10C94C9
:100630005119A8E1B0E0EFE1F3E00C9441196983AE
:100640007A838B839C832D833E834F83588789E0F5
:10065000E82EF12CEC0EFD1ECE010196B7010E9492
:10066000D2048E010F5E1F4FCE010596B8010E9485
:10067000D2048985823040F08989823028F0C70110
:10068000B8010E944A0501C08FEF6896E6E00C941D
:100690005D19A8E1B0E0EFE4F3E00C94411969833F
:1006A0007A838B839C832D833E834F83588789E095
:1006B000E82EF12CEC0EFD1ECE010196B7010E9432
:1006C000D2048E010F5E1F4FCE010596B8010E9425
:1006D000D2048985823040F08989823028F0C701B0
:1006E000B8010E944A0501C08FEF6896E6E00C94BD
:1006F0005D19A8E1B0E0EFE7F3E00C9441196983DC
:100700007A838B839C832D833E834F83588789E034
:10071000E82EF12CEC0EFD1ECE010196B7010E94D1
:10072000D2048E010F5E1F4FCE010596B8010E94C4
:10073000D2048985823040F08989823028F0C7014F
:10074000B8010E944A0501C081E06896E6E00C9479
:100750005D19ACE0B0E0EFEAF3E00C944519698371
:100760007A838B839C83CE010196BE016B5F7F4FA2
:100770000E94D2048D81823061F1823050F1843048
:1007800021F48E81882351F12EC02F81388537FDC9
:1007900020C06E812F3131051CF06623F9F023C093
:1007A0008EE190E0821B930B29853A854B855C8511
:1007B00004C056954795379527958A95D2F76623B5
:1007C000B1F050954095309521953F4F4F4F5F4F79
:1007D0000EC020E030E040E050E009C02FEF3FEFD6
:1007E0004FEF5FE704C020E030E040E050E8B9019F
:1007F000CA012C96E2E00C946119DF92EF92FF920D
:100800000F931F93FC01E480F58006811781D1804E
:100810008081823048F480E090E0A0E1B0E0E82AF6
:10082000F92A0A2B1B2BA5C0843009F49FC0823003
:1008300021F4EE24FF24870105C0E114F104010531
:10084000110519F4E0E0F0E096C0628173819FEF3A
:10085000623879070CF05BC022E83FEF261B370BAC
:100860002A3131052CF020E030E040E050E02AC091
:10087000B801A701022E04C0769567955795479554
:100880000A94D2F781E090E0A0E0B0E004C0880FC5
:10089000991FAA1FBB1F2A95D2F70197A109B10979
:1008A0008E219F21A023B1230097A105B10521F03E
:1008B00081E090E0A0E0B0E09A01AB01282B392B59
:1008C0004A2B5B2BDA01C9018F779070A070B07052
:1008D00080349105A105B10539F427FF09C0205CDA
:1008E0003F4F4F4F5F4F04C0215C3F4F4F4F5F4F13
:1008F000E0E0F0E02030A0E03A07A0E04A07A0E402
:100900005A0710F0E1E0F0E079018A0127C0603871
:10091000710564F5FB01E158FF4FD801C7018F77DE
:100920009070A070B07080349105A105B10539F4C4
:10093000E7FE0DC080E490E0A0E0B0E004C08FE3EB
:1009400090E0A0E0B0E0E80EF91E0A1F1B1F17FFA1
:1009500005C016950795F794E794319687E01695AC
:100960000795F794E7948A95D1F705C0EE24FF2404
:100970008701EFEFF0E06E2F679566276795902F60
:100980009F77D794DD24D7948E2F8695492F462BB9
:10099000582F5D29B701CA011F910F91FF90EF9069
:1009A000DF900895FC01DB01408151812281622F9B
:1009B0006F7770E0221F2227221F9381892F880FD3
:1009C000822B282F30E0991F9927991F11969C930D
:1009D000119721153105A9F54115510561057105DD
:1009E00011F482E037C082E89FEF13969C938E93B8
:1009F00012979A01AB0167E0220F331F441F551F66
:100A00006A95D1F783E08C930DC0220F331F441FEA
:100A1000551F12968D919C911397019713969C9355
:100A20008E931297203080E0380780E0480780E4FA
:100A3000580758F314962D933D934D935C93179755
:100A400008952F3F310579F4411551056105710570
:100A500019F484E08C93089564FF03C081E08C93C3
:100A600012C01C9210C02F57304013963C932E9307
:100A7000129783E08C9387E0440F551F661F771F02
:100A80008A95D1F7706414964D935D936D937C9322
:100A9000179708951F93DC01FB019C91923008F495
:100AA00047C08081823008F443C0943051F41196DD
:100AB0001C91843099F58181682F70E0611B710968
:100AC0003FC0843021F0923031F48230B9F181811D
:100AD000882389F12DC011961C9111978230F1F075
:100AE00081811817D9F412962D913C911397828128
:100AF00093818217930794F028173907BCF0149656
:100B00008D919D910D90BC91A02D248135814681C0
:100B10005781281739074A075B0718F4112341F05A
:100B20000AC082179307A407B50740F4112319F0F0
:100B300061E070E005C06FEF7FEF02C060E070E041
:100B4000CB011F910895DF93CF93CDB7DEB7AC975C
:100B50000FB6F894DEBF0FBECDBF8CA78CA5813039
:100B600009F078C00E949D1380E690E00E94F61282
:100B700080E090E0A8E4B4E48FA398A7A9A7BAA75F
:100B80006FA178A589A59AA520E030E04AEF54E44A
:100B90000E941F02DC01CB018BA39CA3ADA3BEA3CB
:100BA0006BA17CA18DA19EA120E030E040E85FE335
:100BB0000E94790388232CF481E090E09AA389A312
:100BC0003FC06BA17CA18DA19EA120E03FEF4FE72C
:100BD00057E40E94190318164CF56FA178A589A552
:100BE0009AA520E030E040E251E40E941F02DC01BF
:100BF000CB01BC01CD010E944900DC01CB019AA3CD
:100C000089A30FC088EC90E098A38F8F8F8D98A157
:100C10000197F1F798A38F8F89A19AA101979AA3C1
:100C200089A389A19AA1009769F714C06BA17CA13F
:100C30008DA19EA10E944900DC01CB019AA389A34A
:100C400089A19AA19E8F8D8F8D8D9E8D0197F1F731
:100C50009E8F8D8F0E944A078DE392E022E432E05E
:100C6000B9010E94FA088BA78BA5813009F082C0D8
:100C70000E949D1324E730E080E061E0A9010E941A
:100C8000611327E830E081E065E0A9010E9461136B
:100C900080E090E0AAEFB3E4898F9A8FAB8FBC8F8E
:100CA000698D7A8D8B8D9C8D20E030E04AEF54E485
:100CB0000E941F02DC01CB018D8B9E8BAF8BB88F06
:100CC0006D897E898F89988D20E030E040E85FE370
:100CD0000E94790388232CF481E090E09C8B8B8B1D
:100CE0003FC06D897E898F89988D20E03FEF4FE767
:100CF00057E40E94190318164CF5698D7A8D8B8D77
:100D00009C8D20E030E040E251E40E941F02DC01B3
:100D1000CB01BC01CD010E944900DC01CB019C8BC1
:100D20008B8B0FC088EC90E09A8B898B89899A898C
:100D30000197F1F79A8B898B8B899C8901979C8B02
:100D40008B8B8B899C89009769F714C06D897E898C
:100D50008F89988D0E944900DC01CB019C8B8B8B85
:100D60008B899C89988B8F878F8598890197F1F75C
:100D7000988B8F878BA5813009F4F0CE8BA58823C3
:100D800009F07FC08DE392E00E94E2090E949D136A
:100D900021E930E080E062E0A9010E94611380E077
:100DA00090E0AAEFB3E48B879C87AD87BE876B8505
:100DB0007C858D859E8520E030E04AEF54E40E94DA
:100DC0001F02DC01CB018F839887A987BA876F81C7
:100DD000788589859A8520E030E040E85FE30E94CD
:100DE000790388232CF481E090E09E838D833FC0BB
:100DF0006F81788589859A8520E03FEF4FE757E43A
:100E00000E94190318164CF56B857C858D859E858F
:100E100020E030E040E251E40E941F02DC01CB01FF
:100E2000BC01CD010E944900DC01CB019E838D8372
:100E30000FC088EC90E09C838B838B819C81019711
:100E4000F1F79C838B838D819E8101979E838D8397
:100E50008D819E81009769F714C06F81788589859F
:100E60009A850E944900DC01CB019E838D838D8190
:100E70009E819A83898389819A810197F1F79A8368
:100E80008983AC960FB6F894DEBF0FBECDBFCF916D
:100E9000DF910895DF93CF93CDB7DEB72E970FB6CE
:100EA000F894DEBF0FBECDBF0E949D1322EA30E052
:100EB00080E060E0A9010E94611325EB30E081E051
:100EC00060E0A9010E94611323EC30E082E060E061
:100ED000A9010E94611383E067E00E941F138DE364
:100EE00092E00E9416080E949D1320ED30E080E001
:100EF00061E0A9010E94611380E090E0AAEFB3E4F1
:100F00008B879C87AD87BE876B857C858D859E850D
:100F100020E030E04AEF54E40E941F02DC01CB01E4
:100F20008F839887A987BA876F81788589859A8505
:100F300020E030E040E85FE30E94790388232CF44E
:100F400081E090E09E838D833FC06F8178858985A5
:100F50009A8520E03FEF4FE757E40E9419031816E7
:100F60004CF56B857C858D859E8520E030E040E2E8
:100F700051E40E941F02DC01CB01BC01CD010E94A3
:100F80004900DC01CB019E838D830FC088EC90E08B
:100F90009C838B838B819C810197F1F79C838B834E
:100FA0008D819E8101979E838D838D819E81009787
:100FB00069F714C06F81788589859A850E944900F8
:100FC000DC01CB019E838D838D819E819A838983F1
:100FD00089819A810197F1F79A8389830E949D13F1
:100FE00023EE30E080E060E0A9010E94611325EB70
:100FF00030E081E060E0A9010E94611323EC30E061
:1010000082E060E0A9010E94611383E067E00E9432
:101010001F1382E492E00E9416082E960FB6F894F1
:10102000DEBF0FBECDBFCF91DF910895DF93CF9389
:10103000CDB7DEB760970FB6F894DEBF0FBECDBF59
:10104000988B8F8710923002C7C00E94E50D809365
:101050002F0280912F028A3008F08AC080913002DE
:10106000282F30E08F859889FC01E20FF31F8091D3
:101070002F02808380E090E0AFEAB3E48B879C8707
:10108000AD87BE876B857C858D859E8520E030E0B1
:101090004AEF54E40E941F02DC01CB018F83988742
:1010A000A987BA876F81788589859A8520E030E0A5
:1010B00040E85FE30E94790388232CF481E090E00C
:1010C0009E838D833FC06F81788589859A8520E0D6
:1010D0003FEF4FE757E40E94190318164CF56B8554
:1010E0007C858D859E8520E030E040E251E40E94C1
:1010F0001F02DC01CB01BC01CD010E944900DC01D3
:10110000CB019E838D830FC088EC90E09C838B8302
:101110008B819C810197F1F79C838B838D819E81CC
:1011200001979E838D838D819E81009769F714C0FE
:101130006F81788589859A850E944900DC01CB0101
:101140009E838D838D819E819A83898389819A81F3
:101150000197F1F79A83898380913002982F995FE4
:1011600083E0692F0E941F138AE20E94FA102BC0AD
:1011700080912F028A3259F48FEF8093300226EF4C
:1011800030E083E067E0A9010E94611320C08091F4
:1011900030028150809330021AC00E94E50D809386
:1011A0002F0280912F028D3391F080912F028A328D
:1011B00051F48FEF8093300226EF30E083E067E058
:1011C000A9010E94611380913002843031F3809133
:1011D00030028F5F8093300280913002853008F4B6
:1011E00034CF60960FB6F894DEBF0FBECDBFCF915F
:1011F000DF910895DF93CF9300D000D000D0CDB71A
:10120000DEB79C838B837E836D8319821A821AC01A
:101210008A81282F30E08B819C81FC01E20FF31F33
:1012200040818A81282F30E08D819E81FC01E20F70
:10123000F31F8081481719F081E0898306C08A81F5
:101240008F5F8A838A81853018F3898126960FB64D
:10125000F894DEBF0FBECDBFCF91DF910895DF932D
:10126000CF93CDB7DEB72E970FB6F894DEBF0FBE83
:10127000CDBF0E949D1320E031E080E060E0A90135
:101280000E94611324E131E081E060E0A9010E9445
:1012900061130E94E50D8093320280E090E0AFEA96
:1012A000B3E48B879C87AD87BE876B857C858D85F6
:1012B0009E8520E030E04AEF54E40E941F02DC01EA
:1012C000CB018F839887A987BA876F8178858985B5
:1012D0009A8520E030E040E85FE30E9479038823AC
:1012E0002CF481E090E09E838D833FC06F817885F0
:1012F00089859A8520E03FEF4FE757E40E94190364
:1013000018164CF56B857C858D859E8520E030E038
:1013100040E251E40E941F02DC01CB01BC01CD017F
:101320000E944900DC01CB019E838D830FC088ECB5
:1013300090E09C838B838B819C810197F1F79C8348
:101340008B838D819E8101979E838D838D819E816C
:10135000009769F714C06F81788589859A850E9406
:101360004900DC01CB019E838D838D819E819A8310
:10137000898389819A810197F1F79A838983809182
:1013800032028B3229F0809132028D3209F081CF06
:10139000809132028B3221F48BE28093310207C0BC
:1013A000809132028D3219F48DE280933102809166
:1013B00031022E960FB6F894DEBF0FBECDBFCF918F
:1013C000DF910895DF93CF9300D0CDB7DEB79A8336
:1013D00089831092330215C00E9448188031E1F7CA
:1013E00080913302282F30E089819A81FC01E20F3D
:1013F000F31F80810E943118809133028F5F8093A8
:10140000330280913302853038F30F900F90CF91E3
:10141000DF910895DF93CF93CDB7DEB7E6970FB690
:10142000F894DEBF0FBECDBF80912E028F5F8093F8
:101430002E020E949D1322E231E080E061E0A901CA
:101440000E94611380E090E0AAEFB3E48FA398A715
:10145000A9A7BAA76FA178A589A59AA520E030E031
:101460004AEF54E40E941F02DC01CB018BA39CA332
:10147000ADA3BEA36BA17CA18DA19EA120E030E015
:1014800040E85FE30E94790388232CF481E090E038
:101490009AA389A33FC06BA17CA18DA19EA120E04E
:1014A0003FEF4FE757E40E94190318164CF56FA160
:1014B00078A589A59AA520E030E040E251E40E9499
:1014C0001F02DC01CB01BC01CD010E944900DC01FF
:1014D000CB019AA389A30FC088EC90E098A38F8FCB
:1014E0008F8D98A10197F1F798A38F8F89A19AA169
:1014F00001979AA389A389A19AA1009769F714C0BB
:101500006BA17CA18DA19EA10E944900DC01CB01B1
:101510009AA389A389A19AA19E8F8D8F8D8D9E8D6F
:101520000197F1F79E8F8D8F80912E02823009F006
:1015300090C00E949D1325E331E080E060E0A901A6
:101540000E94611329E431E081E060E0A9010E947A
:1015500061132DE531E082E062E0A9010E94611390
:101560002EE631E083E066E0A9010E94611380E08D
:1015700090E0A8E4B4E4898F9A8FAB8FBC8F698D1B
:101580007A8D8B8D9C8D20E030E04AEF54E40E94F0
:101590001F02DC01CB018D8B9E8BAF8BB88F6D89C9
:1015A0007E898F89988D20E030E040E85FE30E94DB
:1015B000790388232CF481E090E09C8B8B8B3FC0D7
:1015C0006D897E898F89988D20E03FEF4FE757E442
:1015D0000E94190318164CF5698D7A8D8B8D9C8DA0
:1015E00020E030E040E251E40E941F02DC01CB0128
:1015F000BC01CD010E944900DC01CB019C8B8B8B8F
:101600000FC088EC90E09A8B898B89899A89019721
:10161000F1F79A8B898B8B899C8901979C8B8B8B9B
:101620008B899C89009769F714C06D897E898F89A1
:10163000988D0E944900DC01CB019C8B8B8B8B89A0
:101640009C89988B8F878F8598890197F1F7988B64
:101650008F8780912E028330B8F40E949D1326E775
:1016600031E080E060E0A9010E94611325EB30E0E9
:1016700081E060E0A9010E94611323EC30E082E088
:1016800060E0A9010E94611380912E02833009F06D
:10169000BAC00E949D132BE831E080E061E0A9010F
:1016A0000E9461132DE931E081E061E0A9010E940F
:1016B000611380E090E0AAEFB3E48B879C87AD874D
:1016C000BE876B857C858D859E8520E030E04AEF66
:1016D00054E40E941F02DC01CB018F839887A98705
:1016E000BA876F81788589859A8520E030E040E867
:1016F0005FE30E94790388232CF481E090E09E83CD
:101700008D833FC06F81788589859A8520E03FEF82
:101710004FE757E40E94190318164CF56B857C853A
:101720008D859E8520E030E040E251E40E941F025A
:10173000DC01CB01BC01CD010E944900DC01CB01E1
:101740009E838D830FC088EC90E09C838B838B817C
:101750009C810197F1F79C838B838D819E810197FA
:101760009E838D838D819E81009769F714C06F8160
:10177000788589859A850E944900DC01CB019E838A
:101780008D838D819E819A83898389819A81019736
:10179000F1F79A838983CE018B969BAB8AABE5E107
:1017A000F2E0FDABECABF7E0FEABECA9FDA90080ED
:1017B0008CA99DA901969DAB8CABEAA9FBA90082DF
:1017C0008AA99BA901969BAB8AAB9EA991509EAB1F
:1017D000EEA9EE2351F78CE09CE061E00E941D161B
:1017E000CE018B960E94D9140E949D132FEA31E0FE
:1017F00081E062E0A9010E94611380912D02813095
:10180000E1F710922D02E6960FB6F894DEBF0FBEF8
:10181000CDBFCF91DF910895DF93CF93CDB7DEB7E2
:1018200080912C028F5F80932C0280912C028F304C
:1018300041F481E00E948D1610922C0281E0809389
:101840002D02CF91DF910895DF93CF93CDB7DEB70F
:1018500080912C028F5F80932C0280912C028F301C
:1018600041F481E00E948D1610922C0281E0809359
:101870002D02CF91DF910895DF93CF93CDB7DEB7DF
:1018800080912C028F5F80932C0280912C028330F8
:1018900041F481E00E948D1610922C0281E0809329
:1018A0002D02CF91DF910895DF93CF93CDB7DEB7AF
:1018B000A7970FB6F894DEBF0FBECDBF0E94E30E10
:1018C000CE010F969F8F8E8FE3E2F2E0F9A3E8A39B
:1018D000F8E0FAA3E8A1F9A1008088A199A10196F6
:1018E00099A388A3EE8DFF8D00828E8D9F8D01962A
:1018F0009F8F8E8F9AA191509AA3EAA1EE2351F760
:10190000CE0147969CA38BA3ECE1F2E0FEA3EDA3EE
:10191000F7E0FFA3EDA1FEA100808DA19EA101969D
:101920009EA38DA3EBA1FCA100828BA19CA101969B
:101930009CA38BA39FA191509FA3EFA1EE2351F7EE
:10194000CE010F960E94FA16AFE5B0E0EFE5F0E0A9
:10195000808180688C9380E10E9431180E94481831
:1019600080933C0280913C02813019F481E00E9416
:10197000A3050E942F09809334020E9448188031E9
:10198000E1F7809134020E9431180E949D1320ECEF
:1019900031E080E064E0A9010E9461132EEC31E0A7
:1019A00081E066E0A9010E946113809134028B32CC
:1019B00009F58DE392E00E9416088DE392E00E9403
:1019C000E20980E10E9431180E9448188093350294
:1019D00080913502882321F480E00E94A3050AC08B
:1019E00080913502813011F40E940A0A80912E0202
:1019F0008330F8F2809134028D3209F0E3C082E442
:101A000092E00E94160882E492E00E94E20980E1DE
:101A10000E9431180E944818809335028091350247
:101A2000882309F0C4C084E29CE061E00E941D1696
:101A3000CE0147960E94D9140E949D1327ED31E0F4
:101A400081E062E0A9010E94611380912D02813042
:101A5000E1F710922D028CE39CE061E00E941D16DC
:101A6000CE0147960E94D9140E949D1327EE31E0C3
:101A700081E065E0A9010E94611380912D0281300F
:101A8000E1F710922D0284E29CE061E00E941D16B5
:101A9000CE0147960E94D9140E949D1321EF31E098
:101AA00081E063E0A9010E94611380912D028130E1
:101AB000E1F70E949D1321E032E081E065E0A90199
:101AC0000E94611380E090E0AAEFB3E48B879C87CB
:101AD000AD87BE876B857C858D859E8520E030E057
:101AE0004AEF54E40E941F02DC01CB018F839887E8
:101AF000A987BA876F81788589859A8520E030E04B
:101B000040E85FE30E94790388232CF481E090E0B1
:101B10009E838D833FC06F81788589859A8520E07B
:101B20003FEF4FE757E40E94190318164CF56B85F9
:101B30007C858D859E8520E030E040E251E40E9466
:101B40001F02DC01CB01BC01CD010E944900DC0178
:101B5000CB019E838D830FC088EC90E09C838B83A8
:101B60008B819C810197F1F79C838B838D819E8172
:101B700001979E838D838D819E81009769F714C0A4
:101B80006F81788589859A850E944900DC01CB01A7
:101B90009E838D838D819E819A83898389819A8199
:101BA0000197F1F79A83898310922D020BC08091DF
:101BB0003502813011F40E940A0A80912E0283308E
:101BC00008F41DCF10922E02D4CEDF93CF9300D015
:101BD000CDB7DEB71A824CC0EAE3F0E08A81282F45
:101BE00030E080E190E002C0880F991F2A95E2F76B
:101BF0008083EBE3F0E08A81282F30E080E190E001
:101C0000022E02C0880F991F0A94E2F78095808304
:101C1000198228C0E9E3F0E08081282F30E0898133
:101C2000882F90E0A90102C0559547958A95E2F763
:101C3000CA0181709070009791F48981882F90E09B
:101C4000880F991F880F991F982F8A81890F8F5F9E
:101C50000E943D0E0F900F90CF91DF9108958981E2
:101C60008F5F898389818430A8F28A818F5F8A831C
:101C70008A81843008F4B0CFADCFDF93CF9300D00A
:101C800000D0CDB7DEB789838981282F30E03C832F
:101C90002B838B819C818830910509F470C02B8146
:101CA0003C81293031055CF58B819C818430910524
:101CB00009F459C02B813C81253031059CF48B817E
:101CC0009C818230910509F448C02B813C812330EE
:101CD00031050CF045C08B819C818130910509F460
:101CE00039C067C02B813C812630310509F441C0E1
:101CF0008B819C81873091050CF03EC037C02B81D1
:101D00003C812C30310509F446C08B819C818D309B
:101D100091055CF42B813C812A303105B1F18B8136
:101D20009C818B309105A4F52DC02B813C812E30F8
:101D30003105B9F18B819C818E3091057CF12B812D
:101D40003C812F30310579F18B819C818031910567
:101D500069F12FC097E09A832EC028E02A832BC018
:101D600039E03A8328C085E28A8325C094E09A83CB
:101D700022C025E02A831FC036E03A831CC08AE2D5
:101D80008A8319C091E09A8316C022E02A8313C087
:101D900033E03A8310C08DE28A830DC09DE09A83C0
:101DA0000AC01A8208C02DE32A8305C03BE23A83A9
:101DB00002C089818A838A810F900F900F900F90C3
:101DC000CF91DF910895DF93CF93CDB7DEB7E4E3F2
:101DD000F0E08FEF8083A7E3B0E0E7E3F0E08081FD
:101DE000806E8C9388E30E94FE0E8CE00E94FE0EB3
:101DF00081E00E94FE0ECF91DF910895DF93CF9393
:101E0000CDB7DEB7E9970FB6F894DEBF0FBECDBFF2
:101E100089AFA8E3B0E0E8E3F0E080818F7D8C93A8
:101E2000A8E3B0E0E8E3F0E080818F7B8C9380E072
:101E300090E0A0E8BFE38DAB9EABAFABB8AF6DA9B0
:101E40007EA98FA998AD20E030E04AEF54E40E94CB
:101E50001F02DC01CB0189AB9AABABABBCAB69A970
:101E60007AA98BA99CA920E030E040E85FE30E94BA
:101E7000790388232CF481E090E098AB8FA73FC0D2
:101E800069A97AA98BA99CA920E03FEF4FE757E405
:101E90000E94190318164CF56DA97EA98FA998AD5B
:101EA00020E030E040E251E40E941F02DC01CB015F
:101EB000BC01CD010E944900DC01CB0198AB8FA78A
:101EC0000FC088EC90E09EA78DA78DA59EA50197D9
:101ED000F1F79EA78DA78FA598A9019798AB8FA71B
:101EE0008FA598A9009769F714C069A97AA98BA949
:101EF0009CA90E944900DC01CB0198AB8FA78FA55C
:101F000098A99CA78BA78BA59CA50197F1F79CA7E7
:101F10008BA7A8E3B0E0E8E3F0E0808180688C93D1
:101F200080E090E0A0E8BFE38FA398A7A9A7BAA795
:101F30006FA178A589A59AA520E030E04AEF54E486
:101F40000E941F02DC01CB018BA39CA3ADA3BEA307
:101F50006BA17CA18DA19EA120E030E040E85FE371
:101F60000E94790388232CF481E090E09AA389A34E
:101F70003FC06BA17CA18DA19EA120E03FEF4FE768
:101F800057E40E94190318164CF56FA178A589A58E
:101F90009AA520E030E040E251E40E941F02DC01FB
:101FA000CB01BC01CD010E944900DC01CB019AA309
:101FB00089A30FC088EC90E098A38F8F8F8D98A194
:101FC0000197F1F798A38F8F89A19AA101979AA3FE
:101FD00089A389A19AA1009769F714C06BA17CA17C
:101FE0008DA19EA10E944900DC01CB019AA389A387
:101FF00089A19AA19E8F8D8F8D8D9E8D0197F1F76E
:102000009E8F8D8FE5E3F0E089AD808380E090E0E6
:10201000A0E8BFE3898F9A8FAB8FBC8F698D7A8DD3
:102020008B8D9C8D20E030E04AEF54E40E941F022B
:10203000DC01CB018D8B9E8BAF8BB88F6D897E8938
:102040008F89988D20E030E040E85FE30E947903BB
:1020500088232CF481E090E09C8B8B8B3FC06D89B2
:102060007E898F89988D20E03FEF4FE757E40E94EB
:10207000190318164CF5698D7A8D8B8D9C8D20E097
:1020800030E040E251E40E941F02DC01CB01BC01C0
:10209000CD010E944900DC01CB019C8B8B8B0FC0D2
:1020A00088EC90E09A8B898B89899A890197F1F75E
:1020B0009A8B898B8B899C8901979C8B8B8B8B89C5
:1020C0009C89009769F714C06D897E898F89988DE6
:1020D0000E944900DC01CB019C8B8B8B8B899C89F6
:1020E000988B8F878F8598890197F1F7988B8F87C9
:1020F000A8E3B0E0E8E3F0E080818F778C9380E0A4
:1021000090E0A0E8BFE38B879C87AD87BE876B8597
:102110007C858D859E8520E030E04AEF54E40E9466
:102120001F02DC01CB018F839887A987BA876F8153
:10213000788589859A8520E030E040E85FE30E9459
:10214000790388232CF481E090E09E838D833FC047
:102150006F81788589859A8520E03FEF4FE757E4C6
:102160000E94190318164CF56B857C858D859E851C
:1021700020E030E040E251E40E941F02DC01CB018C
:10218000BC01CD010E944900DC01CB019E838D83FF
:102190000FC088EC90E09C838B838B819C8101979E
:1021A000F1F79C838B838D819E8101979E838D8324
:1021B0008D819E81009769F714C06F81788589852C
:1021C0009A850E944900DC01CB019E838D838D811D
:1021D0009E819A83898389819A810197F1F79A83F5
:1021E0008983E9960FB6F894DEBF0FBECDBFCF91BD
:1021F000DF910895DF93CF93CDB7DEB7E9970FB6A0
:10220000F894DEBF0FBECDBF89AFA8E3B0E0E8E32E
:10221000F0E0808180628C93A8E3B0E0E8E3F0E036
:1022200080818F7B8C9380E090E0A0E8BFE38DAB52
:102230009EABAFABB8AF6DA97EA98FA998AD20E0DA
:1022400030E04AEF54E40E941F02DC01CB0189AB6D
:102250009AABABABBCAB69A97AA98BA99CA920E0CE
:1022600030E040E85FE30E94790388232CF481E0AA
:1022700090E098AB8FA73FC069A97AA98BA99CA9C8
:1022800020E03FEF4FE757E40E94190318164CF582
:102290006DA97EA98FA998AD20E030E040E251E41D
:1022A0000E941F02DC01CB01BC01CD010E9449004C
:1022B000DC01CB0198AB8FA70FC088EC90E09EA704
:1022C0008DA78DA59EA50197F1F79EA78DA78FA538
:1022D00098A9019798AB8FA78FA598A9009769F740
:1022E00014C069A97AA98BA99CA90E944900DC01A4
:1022F000CB0198AB8FA78FA598A99CA78BA78BA57F
:102300009CA50197F1F79CA78BA7A8E3B0E0E8E3B1
:10231000F0E0808180688C9380E090E0A0E8BFE3EB
:102320008FA398A7A9A7BAA76FA178A589A59AA5F1
:1023300020E030E04AEF54E40E941F02DC01CB01B0
:102340008BA39CA3ADA3BEA36BA17CA18DA19EA1D9
:1023500020E030E040E85FE30E94790388232CF41A
:1023600081E090E09AA389A33FC06BA17CA18DA1DD
:102370009EA120E03FEF4FE757E40E941903181693
:102380004CF56FA178A589A59AA520E030E040E240
:1023900051E40E941F02DC01CB01BC01CD010E946F
:1023A0004900DC01CB019AA389A30FC088EC90E01F
:1023B00098A38F8F8F8D98A10197F1F798A38F8F96
:1023C00089A19AA101979AA389A389A19AA10097AB
:1023D00069F714C06BA17CA18DA19EA10E94490048
:1023E000DC01CB019AA389A389A19AA19E8F8D8F2D
:1023F0008D8D9E8D0197F1F79E8F8D8FE5E3F0E037
:1024000089AD808380E090E0A0E8BFE3898F9A8F58
:10241000AB8FBC8F698D7A8D8B8D9C8D20E030E0E9
:102420004AEF54E40E941F02DC01CB018D8B9E8B8E
:10243000AF8BB88F6D897E898F89988D20E030E0D1
:1024400040E85FE30E94790388232CF481E090E068
:102450009C8B8B8B3FC06D897E898F89988D20E006
:102460003FEF4FE757E40E94190318164CF5698DAA
:102470007A8D8B8D9C8D20E030E040E251E40E940B
:102480001F02DC01CB01BC01CD010E944900DC012F
:10249000CB019C8B8B8B0FC088EC90E09A8B898B47
:1024A00089899A890197F1F79A8B898B8B899C8905
:1024B00001979C8B8B8B8B899C89009769F714C043
:1024C0006D897E898F89988D0E944900DC01CB013E
:1024D0009C8B8B8B8B899C89988B8F878F85988918
:1024E0000197F1F7988B8F87A8E3B0E0E8E3F0E07D
:1024F00080818F778C9380E090E0A0E8BFE38B87AA
:102500009C87AD87BE876B857C858D859E8520E009
:1025100030E04AEF54E40E941F02DC01CB018F83BC
:102520009887A987BA876F81788589859A8520E001
:1025300030E040E85FE30E94790388232CF481E0D7
:1025400090E09E838D833FC06F81788589859A85D1
:1025500020E03FEF4FE757E40E94190318164CF5AF
:102560006B857C858D859E8520E030E040E251E4DE
:102570000E941F02DC01CB01BC01CD010E94490079
:10258000DC01CB019E838D830FC088EC90E09C839F
:102590008B838B819C810197F1F79C838B838D8149
:1025A0009E8101979E838D838D819E81009769F71F
:1025B00014C06F81788589859A850E944900DC0165
:1025C000CB019E838D838D819E819A8389838981AE
:1025D0009A810197F1F79A838983E9960FB6F89467
:1025E000DEBF0FBECDBFCF91DF910895DF93CF93B4
:1025F00000D00F92CDB7DEB79B838A8319820EC0BD
:102600008981282F30E08A819B81FC01E20FF31F32
:1026100080810E94FA1089818F5F89838981282FA8
:1026200030E08A819B81FC01E20FF31F80818823C7
:1026300039F70F900F900F90CF91DF910895DF93AE
:10264000CF9300D000D00F92CDB7DEB78A836B83D3
:102650008A81282F30E03D832C838C819D818130BD
:102660009105C1F02C813D81223031052CF48C8103
:102670009D81009761F019C02C813D812230310588
:1026800069F08C819D818330910561F00EC08B8152
:1026900089830BC08B81805C898307C08B818C5EB2
:1026A000898303C08B818C5A8983898180680E94C9
:1026B000FE0E0F900F900F900F900F90CF91DF9123
:1026C0000895DF93CF9300D000D0CDB7DEB78983D4
:1026D0006A835C834B8389816A810E941F138B818B
:1026E0009C810E94F6120F900F900F900F90CF9147
:1026F000DF910895DF93CF93CDB7DEB766970FB61E
:10270000F894DEBF0FBECDBF9E8B8D8B8D899E89C9
:102710009E012F5F3F4FB9014AE050E00E946C19C3
:10272000CE0101960E94F61266960FB6F894DEBFAF
:102730000FBECDBFCF91DF910895DF93CF93CDB77B
:10274000DEB781E00E94FE0ECF91DF9108951F92C7
:102750000F920FB60F9211242F933F934F935F93D5
:102760006F937F938F939F93AF93BF93EF93FF9359
:10277000DF93CF93CDB7DEB78091360290913702C9
:10278000009729F0E0913602F09137020995CF9138
:10279000DF91FF91EF91BF91AF919F918F917F91C9
:1027A0006F915F914F913F912F910F900FBE0F90BE
:1027B0001F9018951F920F920FB60F9211242F930E
:1027C0003F934F935F936F937F938F939F93AF93B9
:1027D000BF93EF93FF93DF93CF93CDB7DEB7809195
:1027E000360290913702009729F0E0913602F0917D
:1027F00037020995CF91DF91FF91EF91BF91AF9192
:102800009F918F917F916F915F914F913F912F9108
:102810000F900FBE0F901F9018951F920F920FB63A
:102820000F9211242F933F934F935F936F937F9356
:102830008F939F93AF93BF93EF93FF93DF93CF93C8
:10284000CDB7DEB78091380290913902009729F018
:10285000E0913802F09139020995CF91DF91FF9113
:10286000EF91BF91AF919F918F917F916F915F9108
:102870004F913F912F910F900FBE0F901F90189581
:102880001F920F920FB60F9211242F933F934F93E5
:102890005F936F937F938F939F93AF93BF93EF93C8
:1028A000FF93DF93CF93CDB7DEB78091380290913D
:1028B0003902009729F0E0913802F0913902099528
:1028C000CF91DF91FF91EF91BF91AF919F918F9148
:1028D0007F916F915F914F913F912F910F900FBE1C
:1028E0000F901F9018951F920F920FB60F92112400
:1028F0002F933F934F935F936F937F938F939F9308
:10290000AF93BF93EF93FF93DF93CF93CDB7DEB732
:1029100080913A0290913B02009729F0E0913A02AF
:10292000F0913B020995CF91DF91FF91EF91BF911B
:10293000AF919F918F917F916F915F914F913F9157
:102940002F910F900FBE0F901F9018951F920F920E
:102950000FB60F9211242F933F934F935F936F9372
:102960007F938F939F93AF93BF93EF93FF93DF93E7
:10297000CF93CDB7DEB780913A0290913B0200979A
:1029800029F0E0913A02F0913B020995CF91DF9155
:10299000FF91EF91BF91AF919F918F917F916F9137
:1029A0005F914F913F912F910F900FBE0F901F900D
:1029B0001895DF93CF93CDB7DEB72A970FB6F8946B
:1029C000DEBF0FBECDBF9A838983E981FA818481FE
:1029D000282F30E03A87298789859A8581309105AB
:1029E00009F463C029853A852230310509F4C5C050
:1029F00089859A85009709F017C1E2E5F0E0108219
:102A0000E3E5F0E01082ECE5F0E01082A2E5B0E052
:102A1000E981FA81808191818C93E981FA818581B4
:102A2000282F30E038872F838F819885009731F0E9
:102A30002F81388521303105C9F0F6C0E3E5F0E09B
:102A400080E88083A3E5B0E0E3E5F0E08081982FA3
:102A5000987FE981FA818681892B8C93A9E5B0E082
:102A6000E9E5F0E0808181608C93DEC0ACE5B0E008
:102A7000E981FA81828193818C93E3E5F0E088E833
:102A80008083A3E5B0E0E3E5F0E08081982F987FB4
:102A9000E981FA818681892B8C93A9E5B0E0E9E58B
:102AA000F0E0808182608C93BFC0ECE4F0E01182A2
:102AB0001082EAE4F0E011821082EFE4F0E010828C
:102AC000EEE4F0E01082ACE4B0E0E981FA818081CC
:102AD000918111969C938E93E981FA818581282FAB
:102AE00030E03E832D838D819E81009731F02D81D2
:102AF0003E8121303105C9F097C0EFE4F0E08CE071
:102B00008083AEE4B0E0EEE4F0E08081982F987F1F
:102B1000E981FA818681892B8C93A9E5B0E0E9E50A
:102B2000F0E0808184608C937FC0AAE4B0E0E9810A
:102B3000FA818281938111969C938E93EFE4F0E069
:102B40008CE08083AEE4B0E0EEE4F0E08081886069
:102B50008C93AEE4B0E0EEE4F0E08081982F987FB3
:102B6000E981FA818681892B8C93A9E5B0E0E9E5BA
:102B7000F0E0808180618C9357C0E4E4F0E0108243
:102B8000E5E4F0E01082E3E4F0E01082A4E4B0E0D9
:102B9000E981FA81808191818C93E981FA81858133
:102BA000282F30E03C832B838B819C81009731F070
:102BB0002B813C8121303105C9F036C0E5E4F0E0DD
:102BC00080E88083A5E4B0E0E5E4F0E08081982F20
:102BD000987FE981FA818681892B8C93A9E5B0E001
:102BE000E9E5F0E0808180648C931EC0A3E4B0E04E
:102BF000E981FA81828193818C93E5E4F0E088E8B1
:102C00008083A5E4B0E0E5E4F0E08081982F987F30
:102C1000E981FA818681892B8C93A9E5B0E0E9E509
:102C2000F0E0808180688C932A960FB6F894DEBF1E
:102C30000FBECDBFCF91DF910895DF93CF9300D02A
:102C400000D00F92CDB7DEB79A8389836B838B81D7
:102C5000282F30E03D832C838C819D81813091052C
:102C600081F02C813D812230310591F08C819D8154
:102C70000097A1F489819A8190933702809336025C
:102C80000DC089819A81909339028093380206C0E1
:102C900089819A8190933B0280933A020F900F9022
:102CA0000F900F900F90CF91DF910895DF93CF9306
:102CB00000D00F92CDB7DEB789838981282F30E00D
:102CC0003B832A838A819B818130910589F02A8107
:102CD0003B8122303105A1F08A819B810097B9F4B4
:102CE000A3E5B0E0E3E5F0E08081887F8C930FC03E
:102CF000AEE4B0E0EEE4F0E08081887F8C9307C022
:102D0000A5E4B0E0E5E4F0E08081887F8C930F904B
:102D10000F900F90CF91DF910895DF93CF9300D064
:102D20000F92CDB7DEB789838981282F30E03B83AE
:102D30002A838A819B818130910511F12A813B810F
:102D400022303105D1F18A819B81009709F04CC076
:102D5000E2E5F0E01082E3E5F0E01082ECE5F0E07F
:102D60001082A9E5B0E0E9E5F0E080818C7F8C93EA
:102D7000A8E5B0E0E8E5F0E0808183608C9334C0A2
:102D8000ECE4F0E011821082EAE4F0E011821082BB
:102D9000EFE4F0E01082EEE4F0E01082A9E5B0E0AC
:102DA000E9E5F0E080818B7E8C93A8E5B0E0E8E572
:102DB000F0E080818C618C9317C0E4E4F0E0108235
:102DC000E5E4F0E01082E3E4F0E01082A9E5B0E091
:102DD000E9E5F0E080818F738C93A8E5B0E0E8E549
:102DE000F0E08081806C8C930F900F900F90CF91CA
:102DF000DF9108950F931F93DF93CF9300D000D0FE
:102E0000CDB7DEB79A838983ABE2B0E0EBE2F0E0C6
:102E10008081282F2D7FE981FA818481882F90E09D
:102E2000880F991F822B8C93E981FA8185818730E5
:102E3000A1F4AAE2B0E0EAE2F0E08081982F9B7F63
:102E4000E981FA8185818470892B8C93AAE2B0E0B4
:102E5000EAE2F0E0808183608C93AAE2B0E0EAE2EB
:102E6000F0E0808188618C93A0E4B0E0E0E4F0E0E1
:102E7000808180688C93A0E4B0E0E0E4F0E08081A1
:102E8000282F297FE981FA818581882F90E083703E
:102E90009070880F991F822B8C93A0E4B0E0E0E43F
:102EA000F0E08081282F2F7CE981FA818681882FAC
:102EB00090E082959295907F9827807F9827822B2B
:102EC0008C93A0E4B0E0E0E4F0E08081282F277F3D
:102ED000E981FA818781882F90E0880F991F880FF8
:102EE000991F880F991F822B8C93E981FA81848125
:102EF000282F30E03C832B838B819C81009739F015
:102F0000EB81FC81E130F10509F456C0A1C000E479
:102F100010E0E981FA8180819181A281B381880FDB
:102F2000991FAA1FBB1F880F991FAA1FBB1F880FBD
:102F3000991FAA1FBB1F880F991FAA1FBB1F9C01A7
:102F4000AD0180E092E1AAE7B0E0BC01CD010E94B2
:102F50001319DA01C9010197A109B109892F9A2F23
:102F6000AB2FBB27F801808309E210E0E981FA81E9
:102F700080819181A281B381880F991FAA1FBB1FF5
:102F8000880F991FAA1FBB1F880F991FAA1FBB1F5D
:102F9000880F991FAA1FBB1F9C01AD0180E092E121
:102FA000AAE7B0E0BC01CD010E941319DA01C90102
:102FB0008150F80180834CC000E410E0E981FA817F
:102FC00080819181A281B381880F991FAA1FBB1FA5
:102FD000880F991FAA1FBB1F880F991FAA1FBB1F0D
:102FE0009C01AD0180E092E1AAE7B0E0BC01CD0117
:102FF0000E941319DA01C9010197A109B109892FAA
:103000009A2FAB2FBB27F801808309E210E0E981FA
:10301000FA8180819181A281B381880F991FAA1FB3
:10302000BB1F880F991FAA1FBB1F880F991FAA1FBC
:10303000BB1F9C01AD0180E092E1AAE7B0E0BC01BA
:10304000CD010E941319DA01C9018150F801808372
:103050000F900F900F900F90CF91DF911F910F91D4
:103060000895DF93CF930F92CDB7DEB78983EBE25C
:10307000F0E08081882F90E0807290700097B9F323
:10308000ECE2F0E0898180830F90CF91DF91089589
:10309000DF93CF93CDB7DEB7EBE2F0E080818823FA
:1030A000DCF7ECE2F0E08081CF91DF910895DF93CF
:1030B000CF9300D00F92CDB7DEB79B838A8319825E
:1030C0000EC08981282F30E08A819B81FC01E20FAC
:1030D000F31F80810E94311889818F5F89838981E4
:1030E000282F30E08A819B81FC01E20FF31F808151
:1030F000882339F70F900F900F90CF91DF910895AB
:103100000F931F93DF93CF9300D00F92CDB7DEB70D
:103110009B838A8319828981282F30E08A819B8151
:103120008C01020F131F0E944818F80180830FC002
:1031300089818F5F89838981282F30E08A819B81F3
:103140008C01020F131F0E944818F80180838981A7
:10315000282F30E08A819B81FC01E20FF31F8081E0
:10316000833231F78981282F30E08A819B81FC01ED
:10317000E20FF31F10820F900F900F90CF91DF910D
:103180001F910F910895DF93CF930F92CDB7DEB7C4
:103190008983A0E4B0E0E0E4F0E08081282F2F7C78
:1031A0008981882F90E082959295907F9827807FE3
:1031B0009827822B8C930F90CF91DF910895DF9306
:1031C000CF930F92CDB7DEB78983A0E4B0E0E0E4FF
:1031D000F0E08081282F277F8981882F90E0880F59
:1031E000991F880F991F880F991F822B8C930F901E
:1031F000CF91DF910895DF93CF93CDB7DEB7EBE2A8
:10320000F0E080E28083EAE2F0E01082E0E4F0E0C7
:1032100086E88083E0E4F0E01082E9E2F0E01082EA
:10322000CF91DF910895A1E21A2EAA1BBB1BFD01CD
:103230000DC0AA1FBB1FEE1FFF1FA217B307E40795
:10324000F50720F0A21BB30BE40BF50B661F771FED
:10325000881F991F1A9469F76095709580959095CD
:103260009B01AC01BD01CF0108952F923F924F9277
:103270005F926F927F928F929F92AF92BF92CF9206
:10328000DF92EF92FF920F931F93CF93DF93CDB70F
:10329000DEB7CA1BDB0B0FB6F894DEBF0FBECDBF87
:1032A00009942A88398848885F846E847D848C8458
:1032B0009B84AA84B984C884DF80EE80FD800C8161
:1032C0001B81AA81B981CE0FD11D0FB6F894DEBF44
:1032D0000FBECDBFED010895FB019F01E894423080
:1032E000C4F04532B4F44A3029F497FB1EF49095AB
:1032F00081959F4F642F77270E949D19805D8A33A7
:103300000CF0895D8193CB010097A1F716F45DE283
:1033100051931082C9010C948D19DC01FC01672FB7
:1033200071917723E1F7329704C07C916D9370839C
:103330006291AE17BF07C8F30895AA1BBB1B51E1EA
:1033400007C0AA1FBB1FA617B70710F0A61BB70B15
:10335000881F991F5A95A9F780959095BC01CD01BA
:063360000895F894FFCF70
:1033660046495253542054494D4520544F204C4F02
:1033760047494E0050415353574F524420554E4DE6
:103386004154434845440054525920414741494E0F
:103396000050415353574F5244204D4154434845E2
:1033A6004400454E544552204E45572050415353F4
:1033B600574F5244003D203A20544F2053554D421A
:1033C60049540058203A20544F20434C454152005E
:1033D60050415353574F5244205355424D4954542C
:1033E6004544005245454E544552205041535320C2
:1033F600414741494E002020202020202020200047
:103406002B203A204348414E4745205041535357BD
:103416004F5244002D203A204F50454E20444F4FE6
:103426005200494E434F5252454354205041535344
:10343600574F52440041465445522031204D4F5279
:1034460045204641494C454400415454454D50544D
:103456002053595354454D2057494C4C0042452062
:103466004C4F434B454420464F522031350053457F
:10347600434F4E445300454E5445522050415353FA
:10348600574F524420414741494E004D4158494DFE
:10349600554D204E554D424552204F4600415454FD
:1034A600454D5054532045584345454445440053E3
:1034B600595354454D204953204C4F434B454400E6
:1034C600454E5445522043555252454E54005041A4
:1034D6005353574F524400444F4F52204953204FA5
:1034E60050454E494E4700444F4F52204F50454E8F
:1034F60000444F4F5220495320434C4F53494E47A7
:1035060000444F4F5220434C4F53454400000000A7
:1035160000000000000000401F0101050000401FE0
:0C352600010105802500000103000000E9
:00000001FF
