:100000000C94AB000C94C0000C94C0000C94C00085
:100010000C94C0000C94C0000C94C0000C94C00060
:100020000C94C0000C94C0000C94C0000C94C00050
:100030000C94C0000C94C0000C94C0000C94C00040
:100040000C94C0000C94C0000C94C0000C94C00030
:100050000C94C0006E616E00696E660000407A10FC
:10006000F35A00A0724E18090010A5D4E80000E869
:100070007648170000E40B54020000CA9A3B0000C7
:1000800000E1F505000080969800000040420F0056
:100090000000A08601000000102700000000E80317
:1000A000000000006400000000000A0000000000E2
:1000B0000100000000002C76D888DC674F0823DFA1
:1000C000C1DFAE59E1B1B796E5E3E453C63AE65174
:1000D000997696E8E6C28426EB898C9B62ED407C9B
:1000E0006FFCEFBC9C9F40F2BAA56FA5F490055A37
:1000F0002AF75C936B6CF9676DC11BFCE0E40D475C
:10010000FEF520E6B500D0ED902E0300943577057E
:100110000080841E080000204E0A000000C80C3336
:100120003333330F986E12831141EF8D2114893BC5
:10013000E65516CFFEE6DB18D1844B381BF77C1D45
:10014000901DA4BBE424203284725E228100C9F198
:1001500024ECA1E53D2711241FBECFE5D4E0DEBF8E
:10016000CDBF11E0A0E6B0E0EEE0FBE202C00590FA
:100170000D92AE39B107D9F70E9475070C94851519
:100180000C940000EF92FF920F931F937B018C0160
:1001900020E030E040E05FE40E946E0488238CF0B1
:1001A000C801B70120E030E040E05FE40E943A027D
:1001B0000E942C059B01AC0120503040404050482B
:1001C00006C0C801B7010E942C059B01AC01B90112
:1001D000CA011F910F91FF90EF900895A0E0B0E049
:1001E000E4EFF0E00C946D13DC012B01FA019C911B
:1001F000923008F439C1EB018881823008F433C1B0
:10020000943069F4843009F02FC111969C911197B4
:100210008981981709F428C1A5E9B0E025C1843087
:1002200009F421C18230A9F4923009F01DC19A016C
:10023000AD0188E0EA010990AE01E90109929E0151
:100240008150C1F7E201898111969C9189238183B4
:1002500008C1923009F407C112962D903C90139773
:10026000EB018A819B811496AD90BD90CD90DC907E
:100270001797EC80FD800E811F819101281B390B9F
:10028000B90137FF04C066277727621B730B603202
:1002900071050CF061C0121613066CF537014801A8
:1002A000062E04C096948794779467940A94D2F7A4
:1002B00021E030E040E050E004C0220F331F441F33
:1002C000551F6A95D2F721503040404050402E21B2
:1002D0003F2140235123211531054105510521F0CE
:1002E00021E030E040E050E079018A01E628F7287B
:1002F000082919293CC0232BD1F1260E371E3501C0
:100300004601062E04C096948794779467940A94C5
:10031000D2F721E030E040E050E004C0220F331F6C
:10032000441F551F6A95D2F721503040404050403D
:100330002A213B214C215D21211531054105510523
:1003400021F021E030E040E050E059016A01A628A8
:10035000B728C828D9280BC0821593052CF01C019A
:10036000AA24BB24650103C0EE24FF248701119653
:100370009C91D20111968C91981709F445C099234C
:1003800039F0A80197012A193B094C095D0906C0FB
:10039000A60195012E193F09400B510B57FD08C0CE
:1003A00011823382228224833583468357831DC082
:1003B00081E081833382228288279927DC01821B96
:1003C000930BA40BB50B84839583A683B7830DC0D1
:1003D000220F331F441F551F2483358346835783C1
:1003E0008281938101979383828324813581468121
:1003F0005781DA01C9010197A109B1098F5F9F4FA8
:10040000AF4FBF4328F30BC0918333822282EA0CA3
:10041000FB1C0C1D1D1DE482F5820683178383E0FF
:100420008083248135814681578157FF1AC0C901D5
:10043000AA2797FDA095BA2F81709070A070B07018
:100440005695479537952795822B932BA42BB52B43
:1004500084839583A683B783828193810196938356
:100460008283DF0101C0D201CD01CDB7DEB7E2E169
:100470000C948913A0E2B0E0E0E4F2E00C9479136C
:1004800069837A838B839C832D833E834F83588734
:10049000E9E0EE2EF12CEC0EFD1ECE010196B70127
:1004A0000E94A4068E010F5E1F4FCE010596B80173
:1004B0000E94A4068A8991E089278A8BC701B80126
:1004C000AE01475E5F4F0E94EE000E94CF05A096EE
:1004D000E6E00C949513A0E2B0E0E1E7F2E00C94C2
:1004E000791369837A838B839C832D833E834F8327
:1004F0005887F9E0EF2EF12CEC0EFD1ECE0101968F
:10050000B7010E94A4068E010F5E1F4FCE01059613
:10051000B8010E94A406C701B801AE01475E5F4F53
:100520000E94EE000E94CF05A096E6E00C94951381
:10053000A0E2B0E0EEE9F2E00C946D1369837A83F7
:100540008B839C832D833E834F835887CE010196F6
:10055000BE01675F7F4F0E94A406CE010596BE01D3
:100560006F5E7F4F0E94A4069985923088F089893A
:100570008230C8F0943019F4823051F404C08430D1
:1005800029F4923081F485E990E0C6C0923049F4B4
:1005900020E09A858A89981321E02A87CE0109965E
:1005A000BBC0823049F420E09A858A89981321E003
:1005B0002A8BCE014196B0C02D843E844F8458884A
:1005C0006D887E888F88988CEE24FF248701AA246A
:1005D000BB24650140E050E060E070E0E0E0F0E066
:1005E000C10181709070892BE9F0E60CF71C081DA1
:1005F000191D9A01AB012A0D3B1D4C1D5D1D80E0AC
:1006000090E0A0E0B0E0E614F7040805190520F436
:1006100081E090E0A0E0B0E0BA01A901480F591FC5
:100620006A1F7B1FAA0CBB1CCC1CDD1C97FE08C0DC
:1006300081E090E0A0E0B0E0A82AB92ACA2ADB2A2B
:100640003196E032F10549F0660C771C881C991C44
:100650005694479437942794C3CFFA85EA892B8917
:100660003C898B859C85280F391F2E5F3F4F17C013
:10067000CA0181709070892B61F016950795F794E7
:10068000E79480E090E0A0E0B0E8E82AF92A0A2B9D
:100690001B2B76956795579547952F5F3F4F77FDB5
:1006A000E7CF0CC0440F551F661F771F17FD416031
:1006B000EE0CFF1C001F111F21503040403090E015
:1006C000590790E0690790E4790760F32B8F3C8F1E
:1006D000DB01CA018F779070A070B07080349105F3
:1006E000A105B10561F447FD0AC0E114F10401055B
:1006F000110529F0405C5F4F6F4F7F4F40781A8E95
:10070000FE1711F081E08A8F4D8F5E8F6F8F78A377
:1007100083E0898FCE0149960E94CF05A096E2E141
:100720000C948913A8E1B0E0E8E9F3E00C947513A8
:1007300069837A838B839C832D833E834F83588781
:10074000B9E0EB2EF12CEC0EFD1ECE010196B701A7
:100750000E94A4068E010F5E1F4FCE010596B801C0
:100760000E94A4062985223008F47EC039893230DF
:1007700010F4B8017CC08A859A8989278A87243039
:1007800011F0223031F4231709F06EC065E970E0F2
:100790006EC0343039F41D861E861F86188A1C866A
:1007A0001B8604C0323021F484E08987B7015FC022
:1007B0002B853C858B899C89281B390B3C872B8793
:1007C000ED84FE840F851889AD88BE88CF88D88CCB
:1007D000EA14FB040C051D0540F4EE0CFF1C001F81
:1007E000111F215030403C872B8720E030E040E053
:1007F00050E080E090E0A0E0B0E460E070E0EA1457
:10080000FB040C051D0540F0282B392B4A2B5B2BD4
:10081000EA18FB080C091D09B695A79597958795C9
:10082000EE0CFF1C001F111F6F5F7F4F6F317105B2
:1008300031F7DA01C9018F779070A070B070803401
:100840009105A105B10561F427FD0AC0E114F10489
:100850000105110529F0205C3F4F4F4F5F4F207875
:100860002D873E874F87588BBE01675F7F4FCB0137
:100870000E94CF056896EAE00C949113A8E1B0E0DD
:10088000E4E4F4E00C94791369837A838B839C838A
:100890002D833E834F83588789E0E82EF12CEC0EA0
:1008A000FD1ECE010196B7010E94A4068E010F5EC7
:1008B0001F4FCE010596B8010E94A406898582309B
:1008C00040F08989823028F0C701B8010E941C07D6
:1008D00001C08FEF6896E6E00C949513A8E1B0E0B4
:1008E000E4E7F4E00C94791369837A838B839C8327
:1008F0002D833E834F83588789E0E82EF12CEC0E40
:10090000FD1ECE010196B7010E94A4068E010F5E66
:100910001F4FCE010596B8010E94A406898582303A
:1009200040F08989823028F0C701B8010E941C0775
:1009300001C08FEF6896E6E00C949513A8E1B0E053
:10094000E4EAF4E00C94791369837A838B839C83C3
:100950002D833E834F83588789E0E82EF12CEC0EDF
:10096000FD1ECE010196B7010E94A4068E010F5E06
:100970001F4FCE010596B8010E94A40689858230DA
:1009800040F08989823028F0C701B8010E941C0715
:1009900001C081E06896E6E00C949513A8E0B0E011
:1009A000E4EDF4E00C9476139B01AC0183E08983C1
:1009B000DA01C9018827B7FD83959927AA27BB27A4
:1009C000B82E211531054105510519F482E08983BE
:1009D0003AC08823A9F0203080E0380780E048073B
:1009E00080E8580729F460E070E080E09FEC30C0B8
:1009F000EE24FF248701E21AF30A040B150B02C050
:100A000079018A018EE1C82ED12CDC82CB82ED8265
:100A1000FE820F831887C801B7010E9480050197E5
:100A20001816190684F4082E04C0EE0CFF1C001FD3
:100A3000111F0A94D2F7ED82FE820F831887C81A1D
:100A4000D90ADC82CB82BA82CE0101960E94CF0500
:100A50002896E9E00C949213ACE0B0E0E2E3F5E014
:100A60000C947D1369837A838B839C83CE010196DA
:100A7000BE016B5F7F4F0E94A4068D81823061F1C1
:100A8000823050F1843021F48E81882351F12EC0C0
:100A90002F81388537FD20C06E812F3131051CF044
:100AA0006623F9F023C08EE190E0821B930B298529
:100AB0003A854B855C8504C05695479537952795B3
:100AC0008A95D2F76623B1F05095409530952195DF
:100AD0003F4F4F4F5F4F0EC020E030E040E050E00E
:100AE00009C02FEF3FEF4FEF5FE704C020E030E099
:100AF00040E050E8B901CA012C96E2E00C94991349
:100B0000EF92FF920F931F937B018C0180E0E81618
:100B100080E0F80681E0080780E0180788F48FEF8E
:100B2000E816F1040105110531F028F088E090E0A5
:100B3000A0E0B0E017C080E090E0A0E0B0E012C01C
:100B400080E0E81680E0F80680E0080781E01807FA
:100B500028F088E190E0A0E0B0E004C080E190E0FF
:100B6000A0E0B0E020E230E040E050E0281B390B8C
:100B70004A0B5B0B04C016950795F794E7948A958A
:100B8000D2F7F701E356FF4F8081281B3109410955
:100B90005109C9011F910F91FF90EF900895DF92C5
:100BA000EF92FF920F931F93FC01E480F580068182
:100BB0001781D1808081823048F480E090E0A0E10C
:100BC000B0E0E82AF92A0A2B1B2BA5C0843009F4CF
:100BD0009FC0823021F4EE24FF24870105C0E11478
:100BE000F1040105110519F4E0E0F0E096C062811E
:100BF00073819FEF623879070CF05BC022E83FEF0A
:100C0000261B370B2A3131052CF020E030E040E084
:100C100050E02AC0B801A701022E04C0769567955E
:100C2000579547950A94D2F781E090E0A0E0B0E0B4
:100C300004C0880F991FAA1FBB1F2A95D2F70197DE
:100C4000A109B1098E219F21A023B1230097A105FD
:100C5000B10521F081E090E0A0E0B0E09A01AB01A5
:100C6000282B392B4A2B5B2BDA01C9018F77907027
:100C7000A070B07080349105A105B10539F427FF4B
:100C800009C0205C3F4F4F4F5F4F04C0215C3F4F76
:100C90004F4F5F4FE0E0F0E02030A0E03A07A0E0E7
:100CA0004A07A0E45A0710F0E1E0F0E079018A0178
:100CB00027C06038710564F5FB01E158FF4FD8018A
:100CC000C7018F779070A070B07080349105A10536
:100CD000B10539F4E7FE0DC080E490E0A0E0B0E09B
:100CE00004C08FE390E0A0E0B0E0E80EF91E0A1F18
:100CF0001B1F17FF05C016950795F794E7943196CB
:100D000087E016950795F794E7948A95D1F705C083
:100D1000EE24FF248701EFEFF0E06E2F6795662742
:100D20006795902F9F77D794DD24D7948E2F869543
:100D3000492F462B582F5D29B701CA011F910F91EA
:100D4000FF90EF90DF900895FC01DB01408151811D
:100D50002281622F6F7770E0221F2227221F93814A
:100D6000892F880F822B282F30E0991F9927991FF0
:100D700011969C93119721153105A9F5411551053F
:100D80006105710511F482E037C082E89FEF139688
:100D90009C938E9312979A01AB0167E0220F331F49
:100DA000441F551F6A95D1F783E08C930DC0220F25
:100DB000331F441F551F12968D919C9113970197D5
:100DC00013969C938E931297203080E0380780E032
:100DD000480780E4580758F314962D933D934D939C
:100DE0005C93179708952F3F310579F4411551050C
:100DF0006105710519F484E08C93089564FF03C0C4
:100E000081E08C9312C01C9210C02F573040139673
:100E10003C932E93129783E08C9387E0440F551FE9
:100E2000661F771F8A95D1F7706414964D935D9372
:100E30006D937C93179708951F93DC01FB019C91A0
:100E4000923008F447C08081823008F443C0943067
:100E500051F411961C91843099F58181682F70E0CE
:100E6000611B71093FC0843021F0923031F482302F
:100E7000B9F18181882389F12DC011961C911197B8
:100E80008230F1F081811817D9F412962D913C919E
:100E90001397828193818217930794F0281739075B
:100EA000BCF014968D919D910D90BC91A02D248144
:100EB000358146815781281739074A075B0718F49F
:100EC000112341F00AC082179307A407B50740F425
:100ED000112319F061E070E005C06FEF7FEF02C0F1
:100EE00060E070E0CB011F910895EF92FF920F93A5
:100EF0001F93DF93CF93CDB7DEB7AD970FB6F894BE
:100F0000DEBF0FBECDBF80E1FE017A96DF01282F44
:100F10001D922A95E9F71F8A1A8A198A188A1F864C
:100F20000E94220B20E630E080E060E0A9010E94F0
:100F3000A00F2FE630E081E060E0A9010E94A00F41
:100F400082E060E00E945E0F0E94240A898F80E0A8
:100F500090E0A8E4B3E48B879C87AD87BE876B8560
:100F60007C858D859E8520E030E04AE753E40E9431
:100F70009802DC01CB018F839887A987BA876F819C
:100F8000788589859A8520E030E040E85FE30E941B
:100F90009E0488232CF481E090E09E838D833FC0E3
:100FA0006F81788589859A8520E03FEF4FE757E488
:100FB0000E943E0418164CF56B857C858D859E85B8
:100FC00020E030E040E251E40E949802DC01CB01D5
:100FD000BC01CD010E94C200DC01CB019E838D8348
:100FE0000FC089E190E09C838B838B819C8101976A
:100FF000F1F79C838B838D819E8101979E838D83E6
:101000008D819E81009769F714C06F8178858985ED
:101010009A850E94C200DC01CB019E838D838D8165
:101020009E819A83898389819A810197F1F79A83B6
:101030008983898D8A30D8F1898DA82FB0E0BDA72A
:10104000ACA72CA53DA52D32310501F18CA59DA5A0
:101050008E3291055CF4ACA5BDA5AA32B105D9F0DC
:101060002CA53DA52B32310561F021C08CA59DA595
:101070008F329105A9F0ACA5BDA5AD33B105A9F09E
:1010800016C081E08F8B8BE2888F11C082E08F8B3E
:101090008DE2888F0CC083E08F8B8AE2888F07C037
:1010A00084E08F8B8FE2888F02C085E08F8B8F89E1
:1010B0008823C9F589899A899C01220F331FC901A8
:1010C000880F991F880F991F280F391F898D882F26
:1010D00090E0820F931F9A8B898B00D000D000D0B4
:1010E000EDB7FEB73196CE014A969183808380E8B2
:1010F00090E09383828389899A89958384830E946F
:10110000DF142DB73EB72A5F3F4F0FB6F8943EBFAE
:101110000FBE2DBF9E01265E3F4F82E060E0A90119
:101120000E94A00F6EC18F89813051F08F8982306B
:1011300039F08F89833021F08F89843009F078C0AD
:10114000898D8A3078F1888D282F30E08DB79EB751
:1011500008970FB6F8949EBF0FBE8DBFEDB7FEB7D0
:101160003196CE014A969183808383E890E0938301
:10117000828389899A8995838483378326830E9411
:10118000DF14ADB7BEB718960FB6F894BEBF0FBE4A
:10119000ADBF9E01265E3F4F82E060E0A9010E9444
:1011A000A00F2FC18F8598899C01220F331FC90181
:1011B000880F991F880F991F280F391F898D882F35
:1011C00090E0820F931F988B8F87888D282F30E0B7
:1011D0008DB79EB70A970FB6F8949EBF0FBE8DBF0E
:1011E000EDB7FEB73196CE014A969183808388E8A9
:1011F00090E09383828389899A8995838483378356
:1012000026838F859889918780870E94DF14ADB7E8
:10121000BEB71A960FB6F894BEBF0FBEADBF9E0103
:10122000265E3F4F82E060E0A9010E94A00FE9C066
:101230008F89853009F0E5C0888D282F30E03BA7E5
:101240002AA78AA59BA58B329105C1F0AAA5BBA5AB
:10125000AC32B1053CF42AA53BA52A32310509F48C
:1012600053C097C08AA59BA58D32910551F1AAA5BF
:10127000BBA5AF32B10509F46AC08BC089899A89D0
:10128000AA2797FDA095BA2FBC01CD010E94CE04DC
:101290007B018C018F859889AA2797FDA095BA2F8D
:1012A000BC01CD010E94CE049B01AC01C801B70175
:1012B0000E946B02DC01CB018B8B9C8BAD8BBE8BB8
:1012C00068C089899A89AA2797FDA095BA2FBC0181
:1012D000CD010E94CE047B018C018F859889AA27BD
:1012E00097FDA095BA2FBC01CD010E94CE049B01B1
:1012F000AC01C801B7010E943A02DC01CB018B8B23
:101300009C8BAD8BBE8B45C089899A89AA2797FD96
:10131000A095BA2FBC01CD010E94CE047B018C01A7
:101320008F859889AA2797FDA095BA2FBC01CD017A
:101330000E94CE049B01AC01C801B7010E94980233
:10134000DC01CB018B8B9C8BAD8BBE8B22C0898942
:101350009A89AA2797FDA095BA2FBC01CD010E94BA
:10136000CE047B018C018F859889AA2797FDA095D3
:10137000BA2FBC01CD010E94CE049B01AC01C80173
:10138000B7010E949203DC01CB018B8B9C8BAD8B50
:10139000BE8B2DB73EB7285030400FB6F8943EBFF5
:1013A0000FBE2DBFEDB7FEB73196CE014A969183A1
:1013B00080838FE890E0938382838B899C89AD89B9
:1013C000BE8984839583A683B7830E94DF148DB77B
:1013D0009EB708960FB6F8949EBF0FBE8DBFCE0184
:1013E0004A960E94350F1F8A188E188A1F868F858D
:1013F00098899A8B898B8989898F0E94240A8D33D9
:10140000E1F3898D8D30F1F40E94DC0F20E630E0AD
:1014100080E060E0A9010E94A00F2FE630E081E0AB
:1014200060E0A9010E94A00F82E060E00E945E0FD0
:101430001F8A188E188A1F868F8598899A8B898BA8
:101440008989898F198E80CDDF93CF9300D0CDB756
:10145000DEB71A824CC0EAE3F0E08A81282F30E040
:1014600080E190E002C0880F991F2A95E2F78083FF
:10147000EBE3F0E08A81282F30E080E190E0022E5B
:1014800002C0880F991F0A94E2F780958083198221
:1014900028C0E9E3F0E08081282F30E08981882F9F
:1014A00090E0A90102C0559547958A95E2F7CA01D7
:1014B00081709070009791F48981882F90E0880F57
:1014C000991F880F991F982F8A81890F8F5F0E941B
:1014D0007C0A0F900F90CF91DF91089589818F5FE3
:1014E000898389818430A8F28A818F5F8A838A8187
:1014F000843008F4B0CFADCFDF93CF9300D000D0CD
:10150000CDB7DEB789838981282F30E03C832B83D8
:101510008B819C818830910509F470C02B813C81BE
:10152000293031055CF58B819C818430910509F46B
:1015300059C02B813C81253031059CF48B819C81E5
:101540008230910509F448C02B813C81233031055C
:101550000CF045C08B819C818130910509F439C024
:1015600067C02B813C812630310509F441C08B8155
:101570009C81873091050CF03EC037C02B813C81A7
:101580002C30310509F446C08B819C818D3091054A
:101590005CF42B813C812A303105B1F18B819C8137
:1015A0008B309105A4F52DC02B813C812E30310567
:1015B000B9F18B819C818E3091057CF12B813C812E
:1015C0002F30310579F18B819C818031910569F152
:1015D0002FC097E09A832EC028E02A832BC039E0E1
:1015E0003A8328C08FE28A8325C094E09A8322C080
:1015F00025E02A831FC036E03A831CC08AE28A8332
:1016000019C091E09A8316C022E02A8313C033E008
:101610003A8310C08DE28A830DC09DE09A830AC090
:101620001A8208C02DE32A8305C03BE23A8302C038
:1016300089818A838A810F900F900F900F90CF91AC
:10164000DF910895DF93CF93CDB7DEB7A7E3B0E086
:10165000E7E3F0E080818E608C93E1E3F0E08FEFD0
:10166000808388E30E943D0B8CE00E943D0B81E06B
:101670000E943D0BCF91DF910895DF93CF93CDB7BB
:10168000DEB7E9970FB6F894DEBF0FBECDBF89AFC6
:10169000A8E3B0E0E8E3F0E080818D7F8C93A8E3DD
:1016A000B0E0E8E3F0E080818B7F8C9380E090E015
:1016B000A0E8BFE38DAB9EABAFABB8AF6DA97EA981
:1016C0008FA998AD20E030E04AE753E40E949802E9
:1016D000DC01CB0189AB9AABABABBCAB69A97AA9F6
:1016E0008BA99CA920E030E040E85FE30E949E04C3
:1016F00088232CF481E090E098AB8FA73FC069A9C4
:101700007AA98BA99CA920E03FEF4FE757E40E94FC
:101710003E0418164CF56DA97EA98FA998AD20E05E
:1017200030E040E251E40E949802DC01CB01BC01B0
:10173000CD010E94C200DC01CB0198AB8FA70FC086
:1017400089E190E09EA78DA78DA59EA50197F1F751
:101750009EA78DA78FA598A9019798AB8FA78FA556
:1017600098A9009769F714C069A97AA98BA99CA9BF
:101770000E94C200DC01CB0198AB8FA78FA598A96E
:101780009CA78BA78BA59CA50197F1F79CA78BA77E
:10179000A8E3B0E0E8E3F0E0808188608C9380E02B
:1017A00090E0A0E8BFE38FA398A7A9A7BAA76FA16D
:1017B00078A589A59AA520E030E04AE753E40E9485
:1017C0009802DC01CB018BA39CA3ADA3BEA36BA1AC
:1017D0007CA18DA19EA120E030E040E85FE30E9463
:1017E0009E0488232CF481E090E09AA389A33FC053
:1017F0006BA17CA18DA19EA120E03FEF4FE757E4B4
:101800000E943E0418164CF56FA178A589A59AA5EB
:1018100020E030E040E251E40E949802DC01CB017C
:10182000BC01CD010E94C200DC01CB019AA389A3B7
:101830000FC089E190E098A38F8F8F8D98A10197B9
:10184000F1F798A38F8F89A19AA101979AA389A3F1
:1018500089A19AA1009769F714C06BA17CA18DA101
:101860009EA10E94C200DC01CB019AA389A389A199
:101870009AA19E8F8D8F8D8D9E8D0197F1F79E8FF2
:101880008D8FE2E3F0E089AD808380E090E0A0E816
:10189000BFE3898F9A8FAB8FBC8F698D7A8D8B8DCB
:1018A0009C8D20E030E04AE753E40E949802DC017E
:1018B000CB018D8B9E8BAF8BB88F6D897E898F8985
:1018C000988D20E030E040E85FE30E949E0488238A
:1018D0002CF481E090E09C8B8B8B3FC06D897E89DE
:1018E0008F89988D20E03FEF4FE757E40E943E0438
:1018F00018164CF5698D7A8D8B8D9C8D20E030E02B
:1019000040E251E40E949802DC01CB01BC01CD0110
:101910000E94C200DC01CB019C8B8B8B0FC089E144
:1019200090E09A8B898B89899A890197F1F79A8B34
:10193000898B8B899C8901979C8B8B8B8B899C894C
:10194000009769F714C06D897E898F89988D0E94F0
:10195000C200DC01CB019C8B8B8B8B899C89988B83
:101960008F878F8598890197F1F7988B8F87A8E3E8
:10197000B0E0E8E3F0E08081877F8C9380E090E046
:10198000A0E8BFE38B879C87AD87BE876B857C858E
:101990008D859E8520E030E04AE753E40E9498025E
:1019A000DC01CB018F839887A987BA876F817885FF
:1019B00089859A8520E030E040E85FE30E949E043C
:1019C00088232CF481E090E09E838D833FC06F815B
:1019D000788589859A8520E03FEF4FE757E40E949C
:1019E0003E0418164CF56B857C858D859E8520E020
:1019F00030E040E251E40E949802DC01CB01BC01DE
:101A0000CD010E94C200DC01CB019E838D830FC0FB
:101A100089E190E09C838B838B819C810197F1F716
:101A20009C838B838D819E8101979E838D838D8185
:101A30009E81009769F714C06F81788589859A85A2
:101A40000E94C200DC01CB019E838D838D819E812B
:101A50009A83898389819A810197F1F79A8389838F
:101A6000E9960FB6F894DEBF0FBECDBFCF91DF91E0
:101A70000895DF93CF93CDB7DEB7E9970FB6F8940B
:101A8000DEBF0FBECDBF89AFA8E3B0E0E8E3F0E072
:101A9000808182608C93A8E3B0E0E8E3F0E080818D
:101AA0008B7F8C9380E090E0A0E8BFE38DAB9EAB92
:101AB000AFABB8AF6DA97EA98FA998AD20E030E09B
:101AC0004AE753E40E949802DC01CB0189AB9AAB50
:101AD000ABABBCAB69A97AA98BA99CA920E030E08B
:101AE00040E85FE30E949E0488232CF481E090E0AC
:101AF00098AB8FA73FC069A97AA98BA99CA920E0C0
:101B00003FEF4FE757E40E943E0418164CF56DA9CD
:101B10007EA98FA998AD20E030E040E251E40E9418
:101B20009802DC01CB01BC01CD010E94C200DC01A6
:101B3000CB0198AB8FA70FC089E190E09EA78DA73E
:101B40008DA59EA50197F1F79EA78DA78FA598A9B2
:101B5000019798AB8FA78FA598A9009769F714C034
:101B600069A97AA98BA99CA90E94C200DC01CB01BA
:101B700098AB8FA78FA598A99CA78BA78BA59CA591
:101B80000197F1F79CA78BA7A8E3B0E0E8E3F0E0AA
:101B9000808188608C9380E090E0A0E8BFE38FA311
:101BA00098A7A9A7BAA76FA178A589A59AA520E0AB
:101BB00030E04AE753E40E949802DC01CB018BA39A
:101BC0009CA3ADA3BEA36BA17CA18DA19EA120E08F
:101BD00030E040E85FE30E949E0488232CF481E01B
:101BE00090E09AA389A33FC06BA17CA18DA19EA187
:101BF00020E03FEF4FE757E40E943E0418164CF5F3
:101C00006FA178A589A59AA520E030E040E251E4D3
:101C10000E949802DC01CB01BC01CD010E94C200F0
:101C2000DC01CB019AA389A30FC089E190E098A3BE
:101C30008F8F8F8D98A10197F1F798A38F8F89A12E
:101C40009AA101979AA389A389A19AA1009769F7FC
:101C500014C06BA17CA18DA19EA10E94C200DC01D9
:101C6000CB019AA389A389A19AA19E8F8D8F8D8D77
:101C70009E8D0197F1F79E8F8D8FE2E3F0E089ADA5
:101C8000808380E090E0A0E8BFE3898F9A8FAB8FDC
:101C9000BC8F698D7A8D8B8D9C8D20E030E04AE77A
:101CA00053E40E949802DC01CB018D8B9E8BAF8B9D
:101CB000B88F6D897E898F89988D20E030E040E86B
:101CC0005FE30E949E0488232CF481E090E09C8BCB
:101CD0008B8B3FC06D897E898F89988D20E03FEF87
:101CE0004FE757E40E943E0418164CF5698D7A8D33
:101CF0008B8D9C8D20E030E040E251E40E94980200
:101D0000DC01CB01BC01CD010E94C200DC01CB0192
:101D10009C8B8B8B0FC089E190E09A8B898B898992
:101D20009A890197F1F79A8B898B8B899C89019706
:101D30009C8B8B8B8B899C89009769F714C06D896C
:101D40007E898F89988D0E94C200DC01CB019C8B1B
:101D50008B8B8B899C89988B8F878F85988901972E
:101D6000F1F7988B8F87A8E3B0E0E8E3F0E080819B
:101D7000877F8C9380E090E0A0E8BFE38B879C870F
:101D8000AD87BE876B857C858D859E8520E030E0A4
:101D90004AE753E40E949802DC01CB018F839887C5
:101DA000A987BA876F81788589859A8520E030E098
:101DB00040E85FE30E949E0488232CF481E090E0D9
:101DC0009E838D833FC06F81788589859A8520E0C9
:101DD0003FEF4FE757E40E943E0418164CF56B8521
:101DE0007C858D859E8520E030E040E251E40E94B4
:101DF0009802DC01CB01BC01CD010E94C200DC01D4
:101E0000CB019E838D830FC089E190E09C838B83FF
:101E10008B819C810197F1F79C838B838D819E81BF
:101E200001979E838D838D819E81009769F714C0F1
:101E30006F81788589859A850E94C200DC01CB017B
:101E40009E838D838D819E819A83898389819A81E6
:101E50000197F1F79A838983E9960FB6F894DEBF6C
:101E60000FBECDBFCF91DF910895DF93CF9300D008
:101E70000F92CDB7DEB79B838A8319820EC089810A
:101E8000282F30E08A819B81FC01E20FF31F8081C3
:101E90000E94390D89818F5F89838981282F30E0E5
:101EA0008A819B81FC01E20FF31F8081882339F72F
:101EB0000F900F900F90CF91DF910895DF93CF9304
:101EC00000D000D00F92CDB7DEB78A836B838A81B2
:101ED000282F30E03D832C838C819D8181309105BA
:101EE000C1F02C813D81223031052CF48C819D8103
:101EF000009761F019C02C813D812230310569F0D5
:101F00008C819D818330910561F00EC08B81898326
:101F10000BC08B81805C898307C08B81805F898344
:101F200003C08B81805B8983898180680E943D0B1F
:101F30000F900F900F900F900F90CF91DF91089519
:101F4000DF93CF9300D000D0CDB7DEB789836A830B
:101F50005C834B8389816A810E945E0F8B819C81A7
:101F60000E94350F0F900F900F900F90CF91DF913F
:101F70000895DF93CF93CDB7DEB762970FB6F8948D
:101F8000DEBF0FBECDBF9A8B898B89899A899E014E
:101F90002F5F3F4FB9014AE050E00E949214CE01FA
:101FA00001960E94350F62960FB6F894DEBF0FBE01
:101FB000CDBFCF91DF910895DF93CF93CDB7DEB73B
:101FC00081E00E943D0BCF91DF910895A1E1B0E047
:101FD000ECEEFFE00C946D133C017F876E876A0185
:101FE000FC0117821682838181FD03C06FEF7FEFB2
:101FF0006FC39E012F5F3F4F398B288BF3012381E5
:10200000EE85FF8523FD859123FF8191FF87EE8774
:10201000882309F45AC3853251F4EE85FF8523FDE8
:10202000859123FF8191FF87EE87853229F490E027
:10203000B3010E94B314E2CF982F10E088249924B2
:102040001032B0F49B3269F09C3228F4903251F097
:10205000933271F40BC09D3239F0903349F4116022
:1020600028C01260146025C0186023C0106121C010
:1020700017FD2AC0892F80538A3078F416FF06C0D6
:10208000FAE09F9E902C1124980E13C03AE0839E94
:10209000802C1124880E10620CC09E3221F416FD93
:1020A00014C3106406C09C3611F4106802C0983640
:1020B00059F4EE85FF8523FD959123FF9191FF87CC
:1020C000EE87992309F0BCCF892F8554833020F403
:1020D000812F8061905E07C0892F8556833008F07C
:1020E0009FC1812F8F7E86FD02C076E0972E6FE321
:1020F000F62EF822953619F4F0E4FF2A07C096363A
:1021000019F420E8F22A02C091109A94F7FE0AC04E
:102110003BE3391518F45CE3B52E02C0B92CB39437
:1021200027E009C047E0491520F4BB2447E0942E7E
:10213000F7CF292DBB24C60104969D878C87F60115
:102140006081718182819381AE014F5F5F4F0B2D62
:102150000E94A4136C010981202E332400FF04C0C7
:1021600003FD02C01DE209C0F1FE02C01BE205C072
:10217000F2FC02C010E001C010E2C1018C7090704E
:10218000892BB9F1112311F483E001C084E0881593
:1021900010F088240AC0881AF3FC07C080E290E09F
:1021A000B3010E94B3148A94C9F7112329F0812F37
:1021B00090E0B3010E94B31423FE03C004E510E0D5
:1021C0000EC008E510E00BC0E114F10409F08052E4
:1021D00090E0B3010E94B3140F5F1F4F05C0EF2CB6
:1021E000FF24F0E1EF22FF24F8018491882361F7B6
:1021F00014C1F7FE12C0BC0C24FE04C08A818133D6
:1022000009F4BA941B141CF0BB24B3942DC0F8E05D
:10221000FB1550F538E0B32E27C0F6FC25C0892DFC
:1022200090E08C159D054CF02CEFC2162FEFD206D6
:1022300024F030E8F32A01C09A94992049F0E2E0B2
:10224000F0E0EC0FFD1FE90DF11D80818033A1F35B
:10225000F7FE0AC0B92CB394892D90E0C816D906B0
:1022600014F0992401C09C18F7FC03C025E030E06D
:1022700009C01C141D041CF021E030E003C09601CD
:102280002F5F3F4F112311F02F5F3F4F992029F00F
:10229000892D90E00196280F391F882D90E028178E
:1022A000390714F0882401C0821A4F2C5524C2012A
:1022B00089709070892B39F008C080E290E0B301FA
:1022C0000E94B3148A948820C1F7112329F0812F2A
:1022D00090E0B3010E94B31443FE07C008C080E33E
:1022E00090E0B3010E94B3148A948820C1F7F7FEEE
:1022F00046C08601D7FE02C000E010E076010894D7
:10230000E11CF11CE01AF10A41E050E04C0F5D1FA6
:10231000E40EF51E26014B185108892D90E0AA24E1
:10232000BB24A81AB90A5FEF0F3F150729F48EE204
:1023300090E0B3010E94B314C016D10634F04016E9
:1023400051061CF4F701808101C080E30150104068
:102350000894E11CF11C0A151B052CF090E0B30158
:102360000E94B314E0CF0C151D0539F49A81963301
:1023700018F4953311F424FE81E390E04BC08A8178
:10238000813309F00F7E90E0B3010E94B3149920CD
:10239000A1F08EE290E0B3010E94B31412E0E1E0FC
:1023A000F0E0EC0FFD1FE10FF11D1F5F808190E059
:1023B000B3010E94B3149A9491F744FC03C085E6DC
:1023C00090E002C085E490E0B3010E94B314D7FC12
:1023D00005C0C114D10441F404FF06C0D094C194D7
:1023E000D108D3948DE201C08BE290E0B3010E944A
:1023F000B31480E305C08F5F26EF3FEFC20ED31EFC
:102400003AE0C316D104BCF790E0B3010E94B314C4
:10241000C601C096B3010E94B314CC84DD8452C1BE
:10242000933631F0933799F0933509F059C023C0B2
:10243000F601808189835E010894A11CB11C22E011
:1024400030E0C20ED31E21E0E22EF12C12C0F601C4
:10245000A080B18016FD03C06FEF7FEF02C0692D31
:1024600070E022E030E0C20ED31EC5010E94871446
:102470007C011F7713C0F601A080B18016FD03C058
:102480006FEF7FEF02C0692D70E022E030E0C20EF6
:10249000D31EC5010E947C147C01106813FF07C085
:1024A0001BC080E290E0B3010E94B3148A94882D8F
:1024B00090E0E816F906A8F30FC0F50117FD859125
:1024C00017FF81915F0190E0B3010E94B314811066
:1024D0008A940894E108F108E114F10471F7F2C05C
:1024E000943611F0993689F517FF08C0F60120815E
:1024F00031814281538184E090E00AC0F6018081FD
:1025000091819C01442737FD4095542F82E090E053
:10251000C80ED91E9FE6F92EF12257FF09C050952B
:102520004095309521953F4F4F4F5F4F90E8F92AE6
:10253000CA01B901AE014F5F5F4F2AE030E00E944F
:102540000315E82EE889EE1A41C0953721F41F7E65
:102550002AE030E01CC0197F9F3661F0903720F4EC
:10256000983509F0B2C00FC0903739F0983709F0AC
:10257000ACC004C028E030E00AC0106114FD146053
:1025800020E130E004C014FD166020E132E017FFC6
:1025900008C0F601608171818281938144E050E03E
:1025A00008C0F60180819181BC0180E090E042E0AA
:1025B00050E0C40ED51EAE014F5F5F4F0E94031561
:1025C000E82E5889E51A8FE7F82EF122F6FE0BC0A7
:1025D0008EEFF822E91438F4F4FE07C0F2FC05C0CF
:1025E0009FEEF92202C01E2D01C0192DF4FE0DC070
:1025F000FE01EE0DF11D8081803319F4E9EEFE221B
:1026000008C01F5FF2FE05C003C08F2D867809F059
:102610001F5F0F2DF3FC14C0F0FE0FC0181510F053
:102620009E2C0BC09E2C980C911A182D06C080E28F
:1026300090E0B3010E94B3141F5F1815C0F304C0EB
:10264000181510F4811A01C0882404FF0FC080E31C
:1026500090E0B3010E94B31402FF1DC001FD03C04E
:1026600088E790E00EC088E590E00BC0802F867868
:1026700091F001FF02C08BE201C080E2F7FC8DE225
:1026800090E0B3010E94B31406C080E390E0B30170
:102690000E94B3149A94E914C0F3EA94E1E0F0E0E4
:1026A000EC0FFD1FEE0DF11D808190E0B3010E9443
:1026B000B314EE2091F706C080E290E0B3010E94CF
:1026C000B3148A948820C1F799CCF301668177818D
:1026D000CB016196E2E10C9489132F923F924F92C5
:1026E0005F926F927F928F929F92AF92BF92CF92A2
:1026F000DF92EF92FF920F931F93CF93DF93CDB7AB
:10270000DEB7CA1BDB0B0FB6F894DEBF0FBECDBF22
:1027100009942A88398848885F846E847D848C84F3
:102720009B84AA84B984C884DF80EE80FD800C81FC
:102730001B81AA81B981CE0FD11D0FB6F894DEBFDF
:102740000FBECDBFED010895283008F027E03327F4
:10275000DA01990F311D87FD9160009661057105C1
:1027600039F432602E5F3D9330E32A95E1F7089506
:102770009F3F30F080387105610509F03C5F3C5F98
:102780003D93913008F08068911DDF93CF931F93A4
:102790000F93FF92EF92192F987F9695E92F9695B8
:1027A0009695E90FFF27EA54FF4F99273327EE2428
:1027B000FF24A701E70105900894079428F4360F39
:1027C000E71EF81E491F511D660F771F881F991FAE
:1027D0000694A1F70590079428F4E70EF81E491F08
:1027E000561FC11D770F881F991F661F0694A1F7FA
:1027F0000590079428F4F80E491F561FC71FD11DD6
:10280000880F991F661F771F0694A1F705900794FC
:1028100020F4490F561FC71FD81F990F661F771F37
:10282000881F0694A9F784911095177041F0D695EA
:10283000C79557954795F794E7941A95C1F7ECE536
:10284000F0E06894159015913591659195910590FA
:102850007FE27395E118F10A430B560BC90BD009BF
:10286000C0F7E10CF11E431F561FC91FD01D7EF497
:10287000703311F48A95E6CFE894015030F0080FD8
:102880000AF40027021708F4202F2395022F7A3329
:1028900028F079E37D932A95E9F710C07D932A9576
:1028A00089F6069497956795379517951794E118CB
:1028B000F10A430B560BC90BD00998F023957E9172
:1028C00073957A3308F070E37C932013B8F77E9108
:1028D00070617D9330F0839571E37D9370E32A9569
:1028E000E1F71124EF90FF900F911F91CF91DF91AD
:1028F000992787FD90950895FC01059061507040DF
:102900000110D8F7809590958E0F9F1F0895FC01B8
:102910006150704001900110D8F7809590958E0F0E
:102920009F1F0895FB019F01E8944230C4F0453297
:10293000B4F44A3029F497FB1EF4909581959F4F8B
:10294000642F77270E947115805D8A330CF0895DB2
:102950008193CB010097A1F716F45DE251931082A9
:10296000C9010C9461150F931F93CF93DF938C01D2
:10297000EB018B8181FF1BC082FF0DC02E813F8147
:102980008C819D812817390764F4E881F9810193CE
:10299000F983E88306C0E885F985802F0995892B9E
:1029A00031F48E819F8101969F838E8302C00FEF49
:1029B0001FEFC801DF91CF911F910F910895AEE0F5
:1029C000B0E0E5EEF4E10C947B130D891E8986E0FE
:1029D0008C831A8309838FEF9FE79E838D839E01EB
:1029E000275E3F4FCE0101966F89788DA9010E9425
:1029F000E60F2F813885020F131FF80110822E96E3
:102A0000E4E00C949713FA01AA27283051F1203101
:102A100081F1E8946F936E7F6E5F7F4F8F4F9F4F72
:102A2000AF4FB1E03ED0B4E03CD0670F781F891FB4
:102A30009A1FA11D680F791F8A1F911DA11D6A0F82
:102A4000711D811D911DA11D20D009F468943F9135
:102A50002AE0269F11243019305D3193DEF6CF0134
:102A60000895462F4770405D4193B3E00FD0C9F7FA
:102A7000F6CF462F4F70405D4A3318F0495D31FD67
:102A80004052419302D0A9F7EACFB4E0A6959795BA
:102A9000879577956795BA95C9F700976105710590
:102AA00008959B01AC010A2E0694579547953795DA
:102AB0002795BA95C9F7620F731F841F951FA01D34
:102AC0000895DC01FC01672F71917723E1F73297BC
:102AD00004C07C916D9370836291AE17BF07C8F3F9
:102AE0000895AA1BBB1B51E107C0AA1FBB1FA61755
:102AF000B70710F0A61BB70B881F991F5A95A9F7A7
:0E2B000080959095BC01CD010895F894FFCF0B
:102B0E004D2E54204469706C6F6D61203531004537
:102B1E006E746572206F7065726174696F6E3A00C3
:102B2E002569002569256300256925632569003D12
:102B3E00252E326600000000000000000000010299
:102B4E00020303030304040404040404040505053A
:102B5E000505050505050505050505050506060614
:102B6E0006060606060606060606060606060606F7
:102B7E0006060606060606060606060606070707E4
:102B8E0007070707070707070707070707070707C7
:102B9E0007070707070707070707070707070707B7
:102BAE0007070707070707070707070707070707A7
:102BBE000707070707070707070707070708080894
:102BCE000808080808080808080808080808080877
:102BDE000808080808080808080808080808080867
:102BEE000808080808080808080808080808080857
:102BFE000808080808080808080808080808080847
:102C0E000808080808080808080808080808080836
:102C1E000808080808080808080808080808080826
:102C2E000808080808080808080808080808080816
:0E2C3E00080808080808080808080808080020
:00000001FF
